{
  "contractName": "Claimer",
  "abi": [
    {
      "inputs": [
        {
          "internalType": "contract ERC721Collection",
          "name": "_collection",
          "type": "address"
        }
      ],
      "payable": false,
      "stateMutability": "nonpayable",
      "type": "constructor"
    },
    {
      "constant": true,
      "inputs": [],
      "name": "mintLimit",
      "outputs": [
        {
          "internalType": "uint8",
          "name": "",
          "type": "uint8"
        }
      ],
      "payable": false,
      "stateMutability": "view",
      "type": "function"
    },
    {
      "constant": true,
      "inputs": [],
      "name": "totalMints",
      "outputs": [
        {
          "internalType": "uint8",
          "name": "",
          "type": "uint8"
        }
      ],
      "payable": false,
      "stateMutability": "view",
      "type": "function"
    },
    {
      "constant": false,
      "inputs": [
        {
          "internalType": "address",
          "name": "newSigner",
          "type": "address"
        }
      ],
      "name": "setSigner",
      "outputs": [],
      "payable": false,
      "stateMutability": "nonpayable",
      "type": "function"
    },
    {
      "constant": false,
      "inputs": [
        {
          "internalType": "uint8",
          "name": "newLimit",
          "type": "uint8"
        }
      ],
      "name": "setMintLimit",
      "outputs": [],
      "payable": false,
      "stateMutability": "nonpayable",
      "type": "function"
    },
    {
      "constant": false,
      "inputs": [
        {
          "internalType": "string",
          "name": "wearableId",
          "type": "string"
        },
        {
          "internalType": "uint8",
          "name": "nonceCount",
          "type": "uint8"
        },
        {
          "internalType": "bytes",
          "name": "signature",
          "type": "bytes"
        }
      ],
      "name": "claim",
      "outputs": [],
      "payable": false,
      "stateMutability": "nonpayable",
      "type": "function"
    }
  ],
  "bytecode": "0x60806040526002805460ff60a01b1916740d00000000000000000000000000000000000000001760ff60a81b1916905534801561003b57600080fd5b5060405161082a38038061082a8339818101604052602081101561005e57600080fd5b5051600280546001600160a01b03199081163317909155600080546001600160a01b039093169290911691909117905561078d8061009d6000396000f3fe608060405234801561001057600080fd5b50600436106100575760003560e01c80631f21bfbf1461005c57806323cf7d321461007a57806349a6ee571461009c5780636c19e78314610165578063996517cf1461018b575b600080fd5b610064610193565b6040805160ff9092168252519081900360200190f35b61009a6004803603602081101561009057600080fd5b503560ff166101a3565b005b61009a600480360360608110156100b257600080fd5b8101906020810181356401000000008111156100cd57600080fd5b8201836020820111156100df57600080fd5b8035906020019184600183028401116401000000008311171561010157600080fd5b9193909260ff8335169260408101906020013564010000000081111561012657600080fd5b82018360208201111561013857600080fd5b8035906020019184600183028401116401000000008311171561015a57600080fd5b5090925090506101c3565b61009a6004803603602081101561017b57600080fd5b50356001600160a01b031661044d565b610064610486565b600254600160a81b900460ff1681565b6002805460ff909216600160a01b0260ff60a01b19909216919091179055565b60025460ff600160a01b82048116600160a81b90920416106101e457600080fd5b8260ff1661022786868080601f01602080910402602001604051908101604052809392919081815260200183838082843760009201919091525061049692505050565b60ff161461026b576040805162461bcd60e51b815260206004820152600c60248201526b3bb937b73390373ab6b132b960a11b604482015290519081900360640190fd5b600254604080516020601f850181900481028201810190925283815233926001600160a01b0316916102f09190869086908190840183828082843760009201919091525050604080516020601f8d018190048102820181019092528b815292508b91508a90819084018382808284376000920191909152508a925087915061050f9050565b6001600160a01b03161461033d576040805162461bcd60e51b815260206004820152600f60248201526e77726f6e67207369676e617475726560881b604482015290519081900360640190fd5b60028054600160ff600160a81b808404821683019091160260ff60a81b19909216919091179091553360009081526020919091526040908190209051879087908083838082843791909101948552505060408051938490036020018420805460ff8082166001011660ff19909116179055600054635669c94f60e01b85526001600160a01b038681166004870190815260248701938452604487018c9052911694635669c94f94508693508b928b9291606401848480828437600081840152601f19601f820116905080830192505050945050505050600060405180830381600087803b15801561042d57600080fd5b505af1158015610441573d6000803e3d6000fd5b50505050505050505050565b6002546001600160a01b0316331461046457600080fd5b600280546001600160a01b0319166001600160a01b0392909216919091179055565b600254600160a01b900460ff1681565b336000908152600160209081526040808320905184519192859282918401908083835b602083106104d85780518252601f1990920191602091820191016104b9565b51815160209384036101000a600019018019909216911617905292019485525060405193849003019092205460ff16949350505050565b6000806040516020018080701cdd1c9a5b99c81dd9585c98589b195259607a1b815250601101806f1d5a5b9d0e081b9bdb98d950dbdd5b9d60821b8152506010018074616464726573732077696e6e65724164647265737360581b815250601501905060405160208183030381529060405280519060200120905060008585856040516020018084805190602001908083835b602083106105c15780518252601f1990920191602091820191016105a2565b6001836020036101000a0380198251168184511680821785525050505050509050018360ff1660ff1660f81b8152600101826001600160a01b03166001600160a01b031660601b8152601401935050505060405160208183030381529060405280519060200120905061066282826040516020018083815260200182815260200192505050604051602081830303815290604052805190602001208861066d565b979650505050505050565b60008060008061067c85610729565b90945092509050601b60ff8216101561069357601b015b8060ff16601b141580156106ab57508060ff16601c14155b156106bc5760009350505050610723565b6040805160008152602080820180845289905260ff8416828401526060820186905260808201859052915160019260a0808401939192601f1981019281900390910190855afa158015610713573d6000803e3d6000fd5b5050506020604051035193505050505b92915050565b6000806000835160411461073c57600080fd5b5050506020810151604082015160609092015160001a9290919056fea265627a7a72315820265cf5d0d90277195bbc3eff4c6a7aa224e2b5ca5aa83b5724ddc411d46abb8d64736f6c63430005110032",
  "source": "pragma solidity ^0.5.16;\n\ninterface ERC721Collection {\n    function issueToken(address _beneficiary, string calldata _wearableId) external;\n}\n\ncontract Claimer {\n    ERC721Collection private collection;\n    mapping (address => mapping(string => uint8)) private addressClaims; //player -> wearableId -> numClaimed\n    address private signerAddress;\n    uint8 public mintLimit = 13;\n    uint8 public totalMints = 0; \n    \n    constructor(ERC721Collection _collection) public {\n        signerAddress = msg.sender;\n        collection = _collection;\n    }\n\n    function setSigner(address newSigner) external {\n        require(msg.sender == signerAddress);\n        signerAddress = newSigner;\n    }\n\n    function setMintLimit(uint8 newLimit) external {\n        mintLimit = newLimit;\n    }\n       \n    function claim(string calldata wearableId, uint8 nonceCount, bytes calldata signature) external {\n        require(totalMints < mintLimit);\n        require(getClaimCount(wearableId) == nonceCount, \"wrong number\");        \n        address winnerAdress = msg.sender;\n        require(recoverAddressFromTypedSign(signature, wearableId, nonceCount, winnerAdress) == signerAddress, \"wrong signature\");\n        totalMints++;\n        addressClaims[msg.sender][wearableId]++;\n        collection.issueToken(winnerAdress, wearableId);        \n    }\n\n    function recoverAddressFromTypedSign(bytes memory _sign, string memory wearableId, uint8 nonceCount, address winnerAddress) private pure returns (address) {\n        bytes32 typeHash = keccak256(abi.encodePacked('string wearableId', 'uint8 nonceCount', 'address winnerAddress'));\n        bytes32 valueHash = keccak256(abi.encodePacked(wearableId, nonceCount, winnerAddress));\n        return recover(keccak256(abi.encodePacked(typeHash, valueHash)), _sign);\n    }\n\n    function getClaimCount(string memory wearableId) private view returns (uint8){\n        return addressClaims[msg.sender][wearableId];\n    }\n\n    function recover(bytes32 hash, bytes memory signature) private pure returns (address) {\n        bytes32 r;\n        bytes32 s;\n        uint8 v;\n\n        (v, r, s) = splitSignature(signature);\n\n        if (v < 27) {\n            v += 27;\n        }\n\n        if (v != 27 && v != 28) {\n            return (address(0));\n        } else {\n            return ecrecover(hash, v, r, s);\n        }\n    }\n\n    function splitSignature(bytes memory sig) private pure returns (uint8, bytes32, bytes32) {\n        require(sig.length == 65);\n\n        bytes32 r;\n        bytes32 s;\n        uint8 v;\n\n        assembly {\n            r := mload(add(sig, 32))\n            s := mload(add(sig, 64))\n            v := byte(0, mload(add(sig, 96)))\n        }\n        return (v, r, s);\n    }\n}\n",
  "sourcePath": "/Users/pabloestornut/dev/box1/contracts/Claimer.sol",
  "compiler": {
    "name": "solc",
    "version": "0.5.17+commit.d19bba13.Emscripten.clang"
  },
  "schemaVersion": "3.3.4",
  "updatedAt": "2021-03-10T22:05:21.155Z",
  "devdoc": {
    "methods": {}
  },
  "userdoc": {
    "methods": {}
  }
}