{
  "contractName": "Claimer",
  "abi": [
    {
      "inputs": [
        {
          "internalType": "contract ERC721Collection",
          "name": "_collection",
          "type": "address"
        }
      ],
      "payable": false,
      "stateMutability": "nonpayable",
      "type": "constructor"
    },
    {
      "constant": true,
      "inputs": [],
      "name": "collection",
      "outputs": [
        {
          "internalType": "contract ERC721Collection",
          "name": "",
          "type": "address"
        }
      ],
      "payable": false,
      "stateMutability": "view",
      "type": "function"
    },
    {
      "constant": true,
      "inputs": [],
      "name": "mintLimit",
      "outputs": [
        {
          "internalType": "uint8",
          "name": "",
          "type": "uint8"
        }
      ],
      "payable": false,
      "stateMutability": "view",
      "type": "function"
    },
    {
      "constant": true,
      "inputs": [],
      "name": "signerAddress",
      "outputs": [
        {
          "internalType": "address",
          "name": "",
          "type": "address"
        }
      ],
      "payable": false,
      "stateMutability": "view",
      "type": "function"
    },
    {
      "constant": true,
      "inputs": [],
      "name": "totalMints",
      "outputs": [
        {
          "internalType": "uint8",
          "name": "",
          "type": "uint8"
        }
      ],
      "payable": false,
      "stateMutability": "view",
      "type": "function"
    },
    {
      "constant": false,
      "inputs": [
        {
          "internalType": "address",
          "name": "newSigner",
          "type": "address"
        }
      ],
      "name": "setSigner",
      "outputs": [],
      "payable": false,
      "stateMutability": "nonpayable",
      "type": "function"
    },
    {
      "constant": false,
      "inputs": [
        {
          "internalType": "uint8",
          "name": "newLimit",
          "type": "uint8"
        }
      ],
      "name": "setMintLimit",
      "outputs": [],
      "payable": false,
      "stateMutability": "nonpayable",
      "type": "function"
    },
    {
      "constant": false,
      "inputs": [
        {
          "internalType": "string",
          "name": "wearableId",
          "type": "string"
        },
        {
          "internalType": "uint8",
          "name": "nonceCount",
          "type": "uint8"
        },
        {
          "internalType": "bytes",
          "name": "signature",
          "type": "bytes"
        }
      ],
      "name": "claim",
      "outputs": [],
      "payable": false,
      "stateMutability": "nonpayable",
      "type": "function"
    },
    {
      "constant": true,
      "inputs": [
        {
          "internalType": "string",
          "name": "wearableId",
          "type": "string"
        },
        {
          "internalType": "address",
          "name": "winnerAddress",
          "type": "address"
        }
      ],
      "name": "getClaimCount",
      "outputs": [
        {
          "internalType": "uint8",
          "name": "",
          "type": "uint8"
        }
      ],
      "payable": false,
      "stateMutability": "view",
      "type": "function"
    }
  ],
  "bytecode": "0x6002805460ff60a01b1916740d00000000000000000000000000000000000000001760ff60a81b191690557f737472696e67207765617261626c65496400000000000000000000000000000060a09081527f75696e7438206e6f6e6365436f756e740000000000000000000000000000000060b1527f616464726573732077696e6e657241646472657373000000000000000000000060c1526036608081905260d660405290206003553480156100b557600080fd5b5060405161097e38038061097e833981810160405260208110156100d857600080fd5b5051600280546001600160a01b03199081163317909155600080546001600160a01b0390931692909116919091179055610867806101176000396000f3fe608060405234801561001057600080fd5b50600436106100885760003560e01c80635b7633d01161005b5780635b7633d0146102475780636c19e7831461026b5780637de1e53614610291578063996517cf1461029957610088565b80631f21bfbf1461008d57806323cf7d32146100ab578063421d8616146100cd57806349a6ee571461017e575b600080fd5b6100956102a1565b6040805160ff9092168252519081900360200190f35b6100cb600480360360208110156100c157600080fd5b503560ff166102b1565b005b610095600480360360408110156100e357600080fd5b8101906020810181356401000000008111156100fe57600080fd5b82018360208201111561011057600080fd5b8035906020019184600183028401116401000000008311171561013257600080fd5b91908080601f016020809104026020016040519081016040528093929190818152602001838380828437600092019190915250929550505090356001600160a01b031691506102e89050565b6100cb6004803603606081101561019457600080fd5b8101906020810181356401000000008111156101af57600080fd5b8201836020820111156101c157600080fd5b803590602001918460018302840111640100000000831117156101e357600080fd5b9193909260ff8335169260408101906020013564010000000081111561020857600080fd5b82018360208201111561021a57600080fd5b8035906020019184600183028401116401000000008311171561023c57600080fd5b50909250905061036d565b61024f6105fd565b604080516001600160a01b039092168252519081900360200190f35b6100cb6004803603602081101561028157600080fd5b50356001600160a01b031661060c565b61024f610645565b610095610654565b600254600160a81b900460ff1681565b6002546001600160a01b031633146102c857600080fd5b6002805460ff909216600160a01b0260ff60a01b19909216919091179055565b6001600160a01b0381166000908152600160209081526040808320905185519192869282918401908083835b602083106103335780518252601f199092019160209182019101610314565b51815160209384036101000a600019018019909216911617905292019485525060405193849003019092205460ff16925050505b92915050565b60025460ff600160a01b82048116600160a81b909204161061038e57600080fd5b60003390508360ff166103d887878080601f0160208091040260200160405190810160405280939291908181526020018383808284376000920191909152508692506102e8915050565b60ff161461041c576040805162461bcd60e51b815260206004820152600c60248201526b3bb937b73390373ab6b132b960a11b604482015290519081900360640190fd5b600254604080516020601f86018190048102820181019092528481526001600160a01b03909216916104a091869086908190840183828082843760009201919091525050604080516020601f8d018190048102820181019092528b815292508b91508a90819084018382808284376000920191909152508a92508791506106649050565b6001600160a01b0316146104ed576040805162461bcd60e51b815260206004820152600f60248201526e77726f6e67207369676e617475726560881b604482015290519081900360640190fd5b60028054600160ff600160a81b808404821683019091160260ff60a81b19909216919091179091553360009081526020919091526040908190209051879087908083838082843791909101948552505060408051938490036020018420805460ff8082166001011660ff19909116179055600054635669c94f60e01b85526001600160a01b038681166004870190815260248701938452604487018c9052911694635669c94f94508693508b928b9291606401848480828437600081840152601f19601f820116905080830192505050945050505050600060405180830381600087803b1580156105dd57600080fd5b505af11580156105f1573d6000803e3d6000fd5b50505050505050505050565b6002546001600160a01b031681565b6002546001600160a01b0316331461062357600080fd5b600280546001600160a01b0319166001600160a01b0392909216919091179055565b6000546001600160a01b031681565b600254600160a01b900460ff1681565b6000808484846040516020018084805190602001908083835b6020831061069c5780518252601f19909201916020918201910161067d565b6001836020036101000a0380198251168184511680821785525050505050509050018360ff1660ff1660f81b8152600101826001600160a01b03166001600160a01b031660601b8152601401935050505060405160208183030381529060405280519060200120905061073f6003548260405160200180838152602001828152602001925050506040516020818303038152906040528051906020012087610749565b9695505050505050565b60008060008061075885610803565b90945092509050601b60ff8216101561076f57601b015b8060ff16601b1415801561078757508060ff16601c14155b156107985760009350505050610367565b6040805160008152602080820180845289905260ff8416828401526060820186905260808201859052915160019260a0808401939192601f1981019281900390910190855afa1580156107ef573d6000803e3d6000fd5b505050602060405103519350505050610367565b6000806000835160411461081657600080fd5b5050506020810151604082015160609092015160001a9290919056fea265627a7a72315820e2bc3cf3db616f399522c89153c83f99c69ae229376a293db855e1df829ec15264736f6c63430005110032",
  "source": "pragma solidity ^0.5.16;\n\ninterface ERC721Collection {\n    function issueToken(address _beneficiary, string calldata _wearableId) external;\n}\n\ncontract Claimer {\n    ERC721Collection public collection;\n    mapping (address => mapping(string => uint8)) private addressClaims; //player -> wearableId -> numClaimed\n    address public signerAddress;\n    uint8 public mintLimit = 13;\n    uint8 public totalMints = 0; \n    bytes32 private typeHash = keccak256(abi.encodePacked('string wearableId', 'uint8 nonceCount', 'address winnerAddress'));\n    \n    constructor(ERC721Collection _collection) public {\n        signerAddress = msg.sender;\n        collection = _collection;\n    }\n\n    function setSigner(address newSigner) external {\n        require(msg.sender == signerAddress);\n        signerAddress = newSigner;\n    }\n\n    function setMintLimit(uint8 newLimit) external {\n        require(msg.sender == signerAddress);\n        mintLimit = newLimit;\n    }\n       \n    function claim(string calldata wearableId, uint8 nonceCount, bytes calldata signature) external {\n        require(totalMints < mintLimit);\n        address winnerAddress = msg.sender;\n        require(getClaimCount(wearableId, winnerAddress) == nonceCount, \"wrong number\");        \n        require(recoverAddressFromTypedSign(signature, wearableId, nonceCount, winnerAddress) == signerAddress, \"wrong signature\");\n        totalMints++;\n        addressClaims[msg.sender][wearableId]++;\n        collection.issueToken(winnerAddress, wearableId);        \n    }\n\n    function recoverAddressFromTypedSign(bytes memory _sign, string memory wearableId, uint8 nonceCount, address winnerAddress) private view returns (address) {        \n        bytes32 valueHash = keccak256(abi.encodePacked(wearableId, nonceCount, winnerAddress));\n        return recover(keccak256(abi.encodePacked(typeHash, valueHash)), _sign);\n    }\n\n    function getClaimCount(string memory wearableId, address winnerAddress) public view returns (uint8){\n        return addressClaims[winnerAddress][wearableId];\n    }\n\n    function recover(bytes32 hash, bytes memory signature) private pure returns (address) {\n        bytes32 r;\n        bytes32 s;\n        uint8 v;\n\n        (v, r, s) = splitSignature(signature);\n\n        if (v < 27) {\n            v += 27;\n        }\n\n        if (v != 27 && v != 28) {\n            return (address(0));\n        } else {\n            return ecrecover(hash, v, r, s);\n        }\n    }\n\n    function splitSignature(bytes memory sig) private pure returns (uint8, bytes32, bytes32) {\n        require(sig.length == 65);\n\n        bytes32 r;\n        bytes32 s;\n        uint8 v;\n\n        assembly {\n            r := mload(add(sig, 32))\n            s := mload(add(sig, 64))\n            v := byte(0, mload(add(sig, 96)))\n        }\n        return (v, r, s);\n    }\n}\n",
  "sourcePath": "/Users/pabloestornut/dev/box1/contracts/Claimer.sol",
  "compiler": {
    "name": "solc",
    "version": "0.5.17+commit.d19bba13.Emscripten.clang"
  },
  "schemaVersion": "3.3.4",
  "updatedAt": "2021-03-11T12:44:17.615Z",
  "devdoc": {
    "methods": {}
  },
  "userdoc": {
    "methods": {}
  }
}