{
  "contractName": "Claimer",
  "abi": [
    {
      "inputs": [
        {
          "internalType": "contract ERC721Collection",
          "name": "_collection",
          "type": "address"
        }
      ],
      "payable": false,
      "stateMutability": "nonpayable",
      "type": "constructor"
    },
    {
      "constant": true,
      "inputs": [],
      "name": "collection",
      "outputs": [
        {
          "internalType": "contract ERC721Collection",
          "name": "",
          "type": "address"
        }
      ],
      "payable": false,
      "stateMutability": "view",
      "type": "function"
    },
    {
      "constant": true,
      "inputs": [],
      "name": "mintLimit",
      "outputs": [
        {
          "internalType": "uint8",
          "name": "",
          "type": "uint8"
        }
      ],
      "payable": false,
      "stateMutability": "view",
      "type": "function"
    },
    {
      "constant": true,
      "inputs": [],
      "name": "signerAddress",
      "outputs": [
        {
          "internalType": "address",
          "name": "",
          "type": "address"
        }
      ],
      "payable": false,
      "stateMutability": "view",
      "type": "function"
    },
    {
      "constant": true,
      "inputs": [],
      "name": "totalMints",
      "outputs": [
        {
          "internalType": "uint8",
          "name": "",
          "type": "uint8"
        }
      ],
      "payable": false,
      "stateMutability": "view",
      "type": "function"
    },
    {
      "constant": false,
      "inputs": [
        {
          "internalType": "uint8",
          "name": "limit",
          "type": "uint8"
        }
      ],
      "name": "setMintLimit",
      "outputs": [],
      "payable": false,
      "stateMutability": "nonpayable",
      "type": "function"
    },
    {
      "constant": false,
      "inputs": [
        {
          "internalType": "string",
          "name": "wearableId",
          "type": "string"
        },
        {
          "internalType": "uint8",
          "name": "nonceCount",
          "type": "uint8"
        },
        {
          "internalType": "bytes",
          "name": "signature",
          "type": "bytes"
        }
      ],
      "name": "claim",
      "outputs": [],
      "payable": false,
      "stateMutability": "nonpayable",
      "type": "function"
    },
    {
      "constant": true,
      "inputs": [
        {
          "internalType": "bytes",
          "name": "_sign",
          "type": "bytes"
        },
        {
          "internalType": "string",
          "name": "wearableId",
          "type": "string"
        },
        {
          "internalType": "uint8",
          "name": "nonceCount",
          "type": "uint8"
        },
        {
          "internalType": "address",
          "name": "winnerAddress",
          "type": "address"
        }
      ],
      "name": "recoverAddressFromTypedSign",
      "outputs": [
        {
          "internalType": "address",
          "name": "",
          "type": "address"
        }
      ],
      "payable": false,
      "stateMutability": "pure",
      "type": "function"
    },
    {
      "constant": true,
      "inputs": [
        {
          "internalType": "string",
          "name": "wearableId",
          "type": "string"
        }
      ],
      "name": "getClaimCount",
      "outputs": [
        {
          "internalType": "uint8",
          "name": "",
          "type": "uint8"
        }
      ],
      "payable": false,
      "stateMutability": "view",
      "type": "function"
    },
    {
      "constant": false,
      "inputs": [
        {
          "internalType": "string",
          "name": "wearableId",
          "type": "string"
        }
      ],
      "name": "addClaimCount",
      "outputs": [
        {
          "internalType": "uint8",
          "name": "",
          "type": "uint8"
        }
      ],
      "payable": false,
      "stateMutability": "nonpayable",
      "type": "function"
    }
  ],
  "bytecode": "0x60806040526001805460ff60a01b1916740c00000000000000000000000000000000000000001760ff60a81b1916905534801561003b57600080fd5b50604051610b62380380610b628339818101604052602081101561005e57600080fd5b505160018054336001600160a01b031991821617909155600280549091166001600160a01b03909216919091179055610ac68061009c6000396000f3fe608060405234801561001057600080fd5b50600436106100935760003560e01c806349a6ee571161006657806349a6ee57146102d25780635b7633d01461040657806362d1abce1461040e5780637de1e536146104b2578063996517cf146104ba57610093565b806314ce8897146100985780631f21bfbf1461015257806323cf7d321461015a5780633b71d5be1461017c575b600080fd5b61013c600480360360208110156100ae57600080fd5b810190602081018135600160201b8111156100c857600080fd5b8201836020820111156100da57600080fd5b803590602001918460018302840111600160201b831117156100fb57600080fd5b91908080601f0160208091040260200160405190810160405280939291908181526020018383808284376000920191909152509295506104c2945050505050565b6040805160ff9092168252519081900360200190f35b61013c6105c5565b61017a6004803603602081101561017057600080fd5b503560ff166105d5565b005b6102b66004803603608081101561019257600080fd5b810190602081018135600160201b8111156101ac57600080fd5b8201836020820111156101be57600080fd5b803590602001918460018302840111600160201b831117156101df57600080fd5b91908080601f0160208091040260200160405190810160405280939291908181526020018383808284376000920191909152509295949360208101935035915050600160201b81111561023157600080fd5b82018360208201111561024357600080fd5b803590602001918460018302840111600160201b8311171561026457600080fd5b91908080601f0160208091040260200160405190810160405280939291908181526020018383808284376000920191909152509295505050813560ff16925050602001356001600160a01b031661060c565b604080516001600160a01b039092168252519081900360200190f35b61017a600480360360608110156102e857600080fd5b810190602081018135600160201b81111561030257600080fd5b82018360208201111561031457600080fd5b803590602001918460018302840111600160201b8311171561033557600080fd5b91908080601f016020809104026020016040519081016040528093929190818152602001838380828437600092019190915250929560ff853516959094909350604081019250602001359050600160201b81111561039257600080fd5b8201836020820111156103a457600080fd5b803590602001918460018302840111600160201b831117156103c557600080fd5b91908080601f01602080910402602001604051908101604052809392919081815260200183838082843760009201919091525092955061076a945050505050565b6102b6610901565b61013c6004803603602081101561042457600080fd5b810190602081018135600160201b81111561043e57600080fd5b82018360208201111561045057600080fd5b803590602001918460018302840111600160201b8311171561047157600080fd5b91908080601f016020809104026020016040519081016040528093929190818152602001838380828437600092019190915250929550610910945050505050565b6102b6610987565b61013c610996565b3360009081526020818152604080832090518451849386929182918401908083835b602083106105035780518252601f1990920191602091820191016104e4565b51815160209384036101000a60001901801990921691161790529201948552506040805194859003820185205433600090815280845291909120885160ff909216965060018701958695509093508892909182918401908083835b6020831061057d5780518252601f19909201916020918201910161055e565b51815160209384036101000a60001901801990921691161790529201948552506040519384900301909220805460ff191660ff94909416939093179092555090949350505050565b600154600160a81b900460ff1681565b6001546001600160a01b031633146105ec57600080fd5b6001805460ff909216600160a01b0260ff60a01b19909216919091179055565b6000806040516020018080701cdd1c9a5b99c81dd9585c98589b195259607a1b815250601101806f1d5a5b9d0e081b9bdb98d950dbdd5b9d60821b8152506010018074616464726573732077696e6e65724164647265737360581b815250601501905060405160208183030381529060405280519060200120905060008585856040516020018084805190602001908083835b602083106106be5780518252601f19909201916020918201910161069f565b6001836020036101000a0380198251168184511680821785525050505050509050018360ff1660ff1660f81b8152600101826001600160a01b03166001600160a01b031660601b8152601401935050505060405160208183030381529060405280519060200120905061075f8282604051602001808381526020018281526020019250505060405160208183030381529060405280519060200120886109a6565b979650505050505050565b3360ff831661077885610910565b60ff16146107bc576040805162461bcd60e51b815260206004820152600c60248201526b3bb937b73390373ab6b132b960a11b604482015290519081900360640190fd5b6001546001600160a01b03166107d48386868561060c565b6001600160a01b031614610821576040805162461bcd60e51b815260206004820152600f60248201526e77726f6e67207369676e617475726560881b604482015290519081900360640190fd5b61082a846104c2565b5060025460408051635669c94f60e01b81526001600160a01b0384811660048301908152602483019384528851604484015288519190941693635669c94f9386938a93606490910190602085019080838360005b8381101561089657818101518382015260200161087e565b50505050905090810190601f1680156108c35780820380516001836020036101000a031916815260200191505b509350505050600060405180830381600087803b1580156108e357600080fd5b505af11580156108f7573d6000803e3d6000fd5b5050505050505050565b6001546001600160a01b031681565b33600090815260208181526040808320905184519192859282918401908083835b602083106109505780518252601f199092019160209182019101610931565b51815160209384036101000a600019018019909216911617905292019485525060405193849003019092205460ff16949350505050565b6002546001600160a01b031681565b600154600160a01b900460ff1681565b6000806000806109b585610a62565b90945092509050601b60ff821610156109cc57601b015b8060ff16601b141580156109e457508060ff16601c14155b156109f55760009350505050610a5c565b6040805160008152602080820180845289905260ff8416828401526060820186905260808201859052915160019260a0808401939192601f1981019281900390910190855afa158015610a4c573d6000803e3d6000fd5b5050506020604051035193505050505b92915050565b60008060008351604114610a7557600080fd5b5050506020810151604082015160609092015160001a9290919056fea265627a7a7231582069e2097afb92c1de7c18501001fe4998373519be84fc171e0aa82c5a7b803dd264736f6c63430005110032",
  "source": "pragma solidity ^0.5.16;\n\ninterface ERC721Collection {\n    function issueToken(address _beneficiary, string calldata _wearableId) external;\n    function getWearableKey(string calldata _wearableId) external view returns (bytes32);\n    function issued(bytes32 _wearableKey) external view returns (uint256);\n    function maxIssuance(bytes32 _wearableKey) external view returns (uint256);\n    function issueTokens(address[] calldata _beneficiaries, bytes32[] calldata _wearableIds) external;\n    function allowed(address _addr) external view returns (bool);\n    function totalSupply() external view returns (uint256);\n    function wearables(uint256 _index) external view returns (string memory);\n}\n\ncontract Claimer {\n    mapping(address => mapping(string => uint8)) addressClaims;\n    address public signerAddress;\n    uint8 public mintLimit = 12;\n    uint8 public totalMints = 0;\n    ERC721Collection public collection;\n    \n    constructor(ERC721Collection _collection) public{\n        signerAddress = msg.sender;\n        collection = _collection;\n    }\n\n    function setMintLimit(uint8 limit) public {\n        require(msg.sender == signerAddress);\n        mintLimit = limit;\n    }\n       \n    function claim(string memory wearableId, uint8 nonceCount, bytes memory signature) public {\n        address winnerAdress = msg.sender;        \n        require(getClaimCount(wearableId) == nonceCount, \"wrong number\");        \n        require(recoverAddressFromTypedSign(signature, wearableId, nonceCount, winnerAdress) == signerAddress, \"wrong signature\");\n        addClaimCount(wearableId);\n        collection.issueToken(winnerAdress, wearableId);        \n    }\n\n    function recoverAddressFromTypedSign(bytes memory _sign, string memory wearableId, uint8 nonceCount, address winnerAddress) public pure returns (address) {\n        bytes32 typeHash = keccak256(abi.encodePacked('string wearableId', 'uint8 nonceCount', 'address winnerAddress'));\n        bytes32 valueHash = keccak256(abi.encodePacked(wearableId, nonceCount, winnerAddress));\n        return recover(keccak256(abi.encodePacked(typeHash, valueHash)), _sign);\n    }\n\n    function getClaimCount(string memory wearableId) public view returns (uint8){\n        return addressClaims[msg.sender][wearableId];\n    }\n    \n    function addClaimCount(string memory wearableId) public returns (uint8) {\n        uint8 currentCount = addressClaims[msg.sender][wearableId];\n        uint8 newValue = currentCount + 1;\n        addressClaims[msg.sender][wearableId] = newValue;\n        return newValue;\n    }\n\n    function recover(bytes32 hash, bytes memory signature) internal pure returns (address) {\n        bytes32 r;\n        bytes32 s;\n        uint8 v;\n\n        (v, r, s) = splitSignature(signature);\n\n        if (v < 27) {\n            v += 27;\n        }\n\n        if (v != 27 && v != 28) {\n            return (address(0));\n        } else {\n            return ecrecover(hash, v, r, s);\n        }\n    }\n\n    \n\n    function splitSignature(bytes memory sig) internal pure returns (uint8, bytes32, bytes32) {\n        require(sig.length == 65);\n\n        bytes32 r;\n        bytes32 s;\n        uint8 v;\n\n        assembly {\n            r := mload(add(sig, 32))\n            s := mload(add(sig, 64))\n            v := byte(0, mload(add(sig, 96)))\n        }\n        return (v, r, s);\n    }\n    \n}\n",
  "sourcePath": "/Users/pabloestornut/dev/box1/contracts/Claimer.sol",
  "compiler": {
    "name": "solc",
    "version": "0.5.17+commit.d19bba13.Emscripten.clang"
  },
  "schemaVersion": "3.3.4",
  "updatedAt": "2021-03-05T15:51:01.194Z",
  "networkType": "ethereum",
  "devdoc": {
    "methods": {}
  },
  "userdoc": {
    "methods": {}
  }
}