{
  "contractName": "ERC721",
  "abi": [
    {
      "inputs": [],
      "payable": false,
      "stateMutability": "nonpayable",
      "type": "constructor"
    },
    {
      "anonymous": false,
      "inputs": [
        {
          "indexed": true,
          "internalType": "address",
          "name": "owner",
          "type": "address"
        },
        {
          "indexed": true,
          "internalType": "address",
          "name": "approved",
          "type": "address"
        },
        {
          "indexed": true,
          "internalType": "uint256",
          "name": "tokenId",
          "type": "uint256"
        }
      ],
      "name": "Approval",
      "type": "event"
    },
    {
      "anonymous": false,
      "inputs": [
        {
          "indexed": true,
          "internalType": "address",
          "name": "owner",
          "type": "address"
        },
        {
          "indexed": true,
          "internalType": "address",
          "name": "operator",
          "type": "address"
        },
        {
          "indexed": false,
          "internalType": "bool",
          "name": "approved",
          "type": "bool"
        }
      ],
      "name": "ApprovalForAll",
      "type": "event"
    },
    {
      "anonymous": false,
      "inputs": [
        {
          "indexed": true,
          "internalType": "address",
          "name": "from",
          "type": "address"
        },
        {
          "indexed": true,
          "internalType": "address",
          "name": "to",
          "type": "address"
        },
        {
          "indexed": true,
          "internalType": "uint256",
          "name": "tokenId",
          "type": "uint256"
        }
      ],
      "name": "Transfer",
      "type": "event"
    },
    {
      "constant": true,
      "inputs": [
        {
          "internalType": "bytes4",
          "name": "interfaceId",
          "type": "bytes4"
        }
      ],
      "name": "supportsInterface",
      "outputs": [
        {
          "internalType": "bool",
          "name": "",
          "type": "bool"
        }
      ],
      "payable": false,
      "stateMutability": "view",
      "type": "function"
    },
    {
      "constant": true,
      "inputs": [
        {
          "internalType": "address",
          "name": "owner",
          "type": "address"
        }
      ],
      "name": "balanceOf",
      "outputs": [
        {
          "internalType": "uint256",
          "name": "",
          "type": "uint256"
        }
      ],
      "payable": false,
      "stateMutability": "view",
      "type": "function"
    },
    {
      "constant": true,
      "inputs": [
        {
          "internalType": "uint256",
          "name": "tokenId",
          "type": "uint256"
        }
      ],
      "name": "ownerOf",
      "outputs": [
        {
          "internalType": "address",
          "name": "",
          "type": "address"
        }
      ],
      "payable": false,
      "stateMutability": "view",
      "type": "function"
    },
    {
      "constant": false,
      "inputs": [
        {
          "internalType": "address",
          "name": "to",
          "type": "address"
        },
        {
          "internalType": "uint256",
          "name": "tokenId",
          "type": "uint256"
        }
      ],
      "name": "approve",
      "outputs": [],
      "payable": false,
      "stateMutability": "nonpayable",
      "type": "function"
    },
    {
      "constant": true,
      "inputs": [
        {
          "internalType": "uint256",
          "name": "tokenId",
          "type": "uint256"
        }
      ],
      "name": "getApproved",
      "outputs": [
        {
          "internalType": "address",
          "name": "",
          "type": "address"
        }
      ],
      "payable": false,
      "stateMutability": "view",
      "type": "function"
    },
    {
      "constant": false,
      "inputs": [
        {
          "internalType": "address",
          "name": "to",
          "type": "address"
        },
        {
          "internalType": "bool",
          "name": "approved",
          "type": "bool"
        }
      ],
      "name": "setApprovalForAll",
      "outputs": [],
      "payable": false,
      "stateMutability": "nonpayable",
      "type": "function"
    },
    {
      "constant": true,
      "inputs": [
        {
          "internalType": "address",
          "name": "owner",
          "type": "address"
        },
        {
          "internalType": "address",
          "name": "operator",
          "type": "address"
        }
      ],
      "name": "isApprovedForAll",
      "outputs": [
        {
          "internalType": "bool",
          "name": "",
          "type": "bool"
        }
      ],
      "payable": false,
      "stateMutability": "view",
      "type": "function"
    },
    {
      "constant": false,
      "inputs": [
        {
          "internalType": "address",
          "name": "from",
          "type": "address"
        },
        {
          "internalType": "address",
          "name": "to",
          "type": "address"
        },
        {
          "internalType": "uint256",
          "name": "tokenId",
          "type": "uint256"
        }
      ],
      "name": "transferFrom",
      "outputs": [],
      "payable": false,
      "stateMutability": "nonpayable",
      "type": "function"
    },
    {
      "constant": false,
      "inputs": [
        {
          "internalType": "address",
          "name": "from",
          "type": "address"
        },
        {
          "internalType": "address",
          "name": "to",
          "type": "address"
        },
        {
          "internalType": "uint256",
          "name": "tokenId",
          "type": "uint256"
        }
      ],
      "name": "safeTransferFrom",
      "outputs": [],
      "payable": false,
      "stateMutability": "nonpayable",
      "type": "function"
    },
    {
      "constant": false,
      "inputs": [
        {
          "internalType": "address",
          "name": "from",
          "type": "address"
        },
        {
          "internalType": "address",
          "name": "to",
          "type": "address"
        },
        {
          "internalType": "uint256",
          "name": "tokenId",
          "type": "uint256"
        },
        {
          "internalType": "bytes",
          "name": "_data",
          "type": "bytes"
        }
      ],
      "name": "safeTransferFrom",
      "outputs": [],
      "payable": false,
      "stateMutability": "nonpayable",
      "type": "function"
    }
  ],
  "bytecode": "0x608060405234801561001057600080fd5b506100437f01ffc9a7000000000000000000000000000000000000000000000000000000006001600160e01b0361007a16565b6100757f80ac58cd000000000000000000000000000000000000000000000000000000006001600160e01b0361007a16565b610148565b7fffffffff00000000000000000000000000000000000000000000000000000000808216141561010b57604080517f08c379a000000000000000000000000000000000000000000000000000000000815260206004820152601c60248201527f4552433136353a20696e76616c696420696e7465726661636520696400000000604482015290519081900360640190fd5b7fffffffff00000000000000000000000000000000000000000000000000000000166000908152602081905260409020805460ff19166001179055565b610d23806101576000396000f3fe608060405234801561001057600080fd5b506004361061009e5760003560e01c80636352211e116100665780636352211e146101b157806370a08231146101ce578063a22cb46514610206578063b88d4fde14610234578063e985e9c5146102fa5761009e565b806301ffc9a7146100a3578063081812fc146100de578063095ea7b31461011757806323b872dd1461014557806342842e0e1461017b575b600080fd5b6100ca600480360360208110156100b957600080fd5b50356001600160e01b031916610328565b604080519115158252519081900360200190f35b6100fb600480360360208110156100f457600080fd5b5035610347565b604080516001600160a01b039092168252519081900360200190f35b6101436004803603604081101561012d57600080fd5b506001600160a01b0381351690602001356103a9565b005b6101436004803603606081101561015b57600080fd5b506001600160a01b038135811691602081013590911690604001356104ba565b6101436004803603606081101561019157600080fd5b506001600160a01b0381358116916020810135909116906040013561050f565b6100fb600480360360208110156101c757600080fd5b503561052a565b6101f4600480360360208110156101e457600080fd5b50356001600160a01b0316610584565b60408051918252519081900360200190f35b6101436004803603604081101561021c57600080fd5b506001600160a01b03813516906020013515156105ec565b6101436004803603608081101561024a57600080fd5b6001600160a01b0382358116926020810135909116916040820135919081019060808101606082013564010000000081111561028557600080fd5b82018360208201111561029757600080fd5b803590602001918460018302840111640100000000831117156102b957600080fd5b91908080601f0160208091040260200160405190810160405280939291908181526020018383808284376000920191909152509295506106b8945050505050565b6100ca6004803603604081101561031057600080fd5b506001600160a01b0381358116916020013516610710565b6001600160e01b03191660009081526020819052604090205460ff1690565b60006103528261073e565b61038d5760405162461bcd60e51b815260040180806020018281038252602c815260200180610c48602c913960400191505060405180910390fd5b506000908152600260205260409020546001600160a01b031690565b60006103b48261052a565b9050806001600160a01b0316836001600160a01b031614156104075760405162461bcd60e51b8152600401808060200182810382526021815260200180610c9d6021913960400191505060405180910390fd5b336001600160a01b038216148061042357506104238133610710565b61045e5760405162461bcd60e51b8152600401808060200182810382526038815260200180610bbd6038913960400191505060405180910390fd5b60008281526002602052604080822080546001600160a01b0319166001600160a01b0387811691821790925591518593918516917f8c5be1e5ebec7d5bd14f71427d1e84f3dd0314c0f7b2291e5b200ac8c7c3b92591a4505050565b6104c4338261075b565b6104ff5760405162461bcd60e51b8152600401808060200182810382526031815260200180610cbe6031913960400191505060405180910390fd5b61050a8383836107ff565b505050565b61050a838383604051806020016040528060008152506106b8565b6000818152600160205260408120546001600160a01b03168061057e5760405162461bcd60e51b8152600401808060200182810382526029815260200180610c1f6029913960400191505060405180910390fd5b92915050565b60006001600160a01b0382166105cb5760405162461bcd60e51b815260040180806020018281038252602a815260200180610bf5602a913960400191505060405180910390fd5b6001600160a01b038216600090815260036020526040902061057e90610943565b6001600160a01b03821633141561064a576040805162461bcd60e51b815260206004820152601960248201527f4552433732313a20617070726f766520746f2063616c6c657200000000000000604482015290519081900360640190fd5b3360008181526004602090815260408083206001600160a01b03871680855290835292819020805460ff1916861515908117909155815190815290519293927f17307eab39ab6107e8899845ad3d59bd9653f200f220920489ca2b5937696c31929181900390910190a35050565b6106c38484846104ba565b6106cf84848484610947565b61070a5760405162461bcd60e51b8152600401808060200182810382526032815260200180610b3b6032913960400191505060405180910390fd5b50505050565b6001600160a01b03918216600090815260046020908152604080832093909416825291909152205460ff1690565b6000908152600160205260409020546001600160a01b0316151590565b60006107668261073e565b6107a15760405162461bcd60e51b815260040180806020018281038252602c815260200180610b91602c913960400191505060405180910390fd5b60006107ac8361052a565b9050806001600160a01b0316846001600160a01b031614806107e75750836001600160a01b03166107dc84610347565b6001600160a01b0316145b806107f757506107f78185610710565b949350505050565b826001600160a01b03166108128261052a565b6001600160a01b0316146108575760405162461bcd60e51b8152600401808060200182810382526029815260200180610c746029913960400191505060405180910390fd5b6001600160a01b03821661089c5760405162461bcd60e51b8152600401808060200182810382526024815260200180610b6d6024913960400191505060405180910390fd5b6108a581610a7a565b6001600160a01b03831660009081526003602052604090206108c690610ab7565b6001600160a01b03821660009081526003602052604090206108e790610ace565b60008181526001602052604080822080546001600160a01b0319166001600160a01b0386811691821790925591518493918716917fddf252ad1be2c89b69c2b068fc378daa952ba7f163c4a11628f55a4df523b3ef91a4505050565b5490565b600061095b846001600160a01b0316610ad7565b610967575060016107f7565b604051630a85bd0160e11b815233600482018181526001600160a01b03888116602485015260448401879052608060648501908152865160848601528651600095928a169463150b7a029490938c938b938b939260a4019060208501908083838e5b838110156109e15781810151838201526020016109c9565b50505050905090810190601f168015610a0e5780820380516001836020036101000a031916815260200191505b5095505050505050602060405180830381600087803b158015610a3057600080fd5b505af1158015610a44573d6000803e3d6000fd5b505050506040513d6020811015610a5a57600080fd5b50516001600160e01b031916630a85bd0160e11b14915050949350505050565b6000818152600260205260409020546001600160a01b031615610ab457600081815260026020526040902080546001600160a01b03191690555b50565b8054610aca90600163ffffffff610add16565b9055565b80546001019055565b3b151590565b600082821115610b34576040805162461bcd60e51b815260206004820152601e60248201527f536166654d6174683a207375627472616374696f6e206f766572666c6f770000604482015290519081900360640190fd5b5090039056fe4552433732313a207472616e7366657220746f206e6f6e20455243373231526563656976657220696d706c656d656e7465724552433732313a207472616e7366657220746f20746865207a65726f20616464726573734552433732313a206f70657261746f7220717565727920666f72206e6f6e6578697374656e7420746f6b656e4552433732313a20617070726f76652063616c6c6572206973206e6f74206f776e6572206e6f7220617070726f76656420666f7220616c6c4552433732313a2062616c616e636520717565727920666f7220746865207a65726f20616464726573734552433732313a206f776e657220717565727920666f72206e6f6e6578697374656e7420746f6b656e4552433732313a20617070726f76656420717565727920666f72206e6f6e6578697374656e7420746f6b656e4552433732313a207472616e73666572206f6620746f6b656e2074686174206973206e6f74206f776e4552433732313a20617070726f76616c20746f2063757272656e74206f776e65724552433732313a207472616e736665722063616c6c6572206973206e6f74206f776e6572206e6f7220617070726f766564a265627a7a72315820e2348e22bc0da6f50b797e18fed69f0b66cb555e99044c55a51d3d3b00a9d80664736f6c63430005110032",
  "source": "/**\n *Submitted for verification at Etherscan.io on 2020-10-13\n*/\n\n/**\n *Submitted for verification at Etherscan.io on 2020-09-16\n*/\n\n/**\n *Submitted for verification at Etherscan.io on 2020-07-02\n*/\n\n// File: @openzeppelin/contracts/ownership/Ownable.sol\n\npragma solidity ^0.5.16;\n\n/**\n * @dev Contract module which provides a basic access control mechanism, where\n * there is an account (an owner) that can be granted exclusive access to\n * specific functions.\n *\n * This module is used through inheritance. It will make available the modifier\n * `onlyOwner`, which can be aplied to your functions to restrict their use to\n * the owner.\n */\ncontract Ownable {\n    address private _owner;\n\n    event OwnershipTransferred(address indexed previousOwner, address indexed newOwner);\n\n    /**\n     * @dev Initializes the contract setting the deployer as the initial owner.\n     */\n    constructor () internal {\n        _owner = msg.sender;\n        emit OwnershipTransferred(address(0), _owner);\n    }\n\n    /**\n     * @dev Returns the address of the current owner.\n     */\n    function owner() public view returns (address) {\n        return _owner;\n    }\n\n    /**\n     * @dev Throws if called by any account other than the owner.\n     */\n    modifier onlyOwner() {\n        require(isOwner(), \"Ownable: caller is not the owner\");\n        _;\n    }\n\n    /**\n     * @dev Returns true if the caller is the current owner.\n     */\n    function isOwner() public view returns (bool) {\n        return msg.sender == _owner;\n    }\n\n    /**\n     * @dev Leaves the contract without owner. It will not be possible to call\n     * `onlyOwner` functions anymore. Can only be called by the current owner.\n     *\n     * > Note: Renouncing ownership will leave the contract without an owner,\n     * thereby removing any functionality that is only available to the owner.\n     */\n    function renounceOwnership() public onlyOwner {\n        emit OwnershipTransferred(_owner, address(0));\n        _owner = address(0);\n    }\n\n    /**\n     * @dev Transfers ownership of the contract to a new account (`newOwner`).\n     * Can only be called by the current owner.\n     */\n    function transferOwnership(address newOwner) public onlyOwner {\n        _transferOwnership(newOwner);\n    }\n\n    /**\n     * @dev Transfers ownership of the contract to a new account (`newOwner`).\n     */\n    function _transferOwnership(address newOwner) internal {\n        require(newOwner != address(0), \"Ownable: new owner is the zero address\");\n        emit OwnershipTransferred(_owner, newOwner);\n        _owner = newOwner;\n    }\n}\n\n// File: @openzeppelin/contracts/introspection/IERC165.sol\n\npragma solidity ^0.5.0;\n\n/**\n * @dev Interface of the ERC165 standard, as defined in the\n * [EIP](https://eips.ethereum.org/EIPS/eip-165).\n *\n * Implementers can declare support of contract interfaces, which can then be\n * queried by others (`ERC165Checker`).\n *\n * For an implementation, see `ERC165`.\n */\ninterface IERC165 {\n    /**\n     * @dev Returns true if this contract implements the interface defined by\n     * `interfaceId`. See the corresponding\n     * [EIP section](https://eips.ethereum.org/EIPS/eip-165#how-interfaces-are-identified)\n     * to learn more about how these ids are created.\n     *\n     * This function call must use less than 30 000 gas.\n     */\n    function supportsInterface(bytes4 interfaceId) external view returns (bool);\n}\n\n// File: @openzeppelin/contracts/token/ERC721/IERC721.sol\n\npragma solidity ^0.5.0;\n\n\n/**\n * @dev Required interface of an ERC721 compliant contract.\n */\ncontract IERC721 is IERC165 {\n    event Transfer(address indexed from, address indexed to, uint256 indexed tokenId);\n    event Approval(address indexed owner, address indexed approved, uint256 indexed tokenId);\n    event ApprovalForAll(address indexed owner, address indexed operator, bool approved);\n\n    /**\n     * @dev Returns the number of NFTs in `owner`'s account.\n     */\n    function balanceOf(address owner) public view returns (uint256 balance);\n\n    /**\n     * @dev Returns the owner of the NFT specified by `tokenId`.\n     */\n    function ownerOf(uint256 tokenId) public view returns (address owner);\n\n    /**\n     * @dev Transfers a specific NFT (`tokenId`) from one account (`from`) to\n     * another (`to`).\n     *\n     * \n     *\n     * Requirements:\n     * - `from`, `to` cannot be zero.\n     * - `tokenId` must be owned by `from`.\n     * - If the caller is not `from`, it must be have been allowed to move this\n     * NFT by either `approve` or `setApproveForAll`.\n     */\n    function safeTransferFrom(address from, address to, uint256 tokenId) public;\n    /**\n     * @dev Transfers a specific NFT (`tokenId`) from one account (`from`) to\n     * another (`to`).\n     *\n     * Requirements:\n     * - If the caller is not `from`, it must be approved to move this NFT by\n     * either `approve` or `setApproveForAll`.\n     */\n    function transferFrom(address from, address to, uint256 tokenId) public;\n    function approve(address to, uint256 tokenId) public;\n    function getApproved(uint256 tokenId) public view returns (address operator);\n\n    function setApprovalForAll(address operator, bool _approved) public;\n    function isApprovedForAll(address owner, address operator) public view returns (bool);\n\n\n    function safeTransferFrom(address from, address to, uint256 tokenId, bytes memory data) public;\n}\n\n// File: @openzeppelin/contracts/token/ERC721/IERC721Receiver.sol\n\npragma solidity ^0.5.0;\n\n/**\n * @title ERC721 token receiver interface\n * @dev Interface for any contract that wants to support safeTransfers\n * from ERC721 asset contracts.\n */\ncontract IERC721Receiver {\n    /**\n     * @notice Handle the receipt of an NFT\n     * @dev The ERC721 smart contract calls this function on the recipient\n     * after a `safeTransfer`. This function MUST return the function selector,\n     * otherwise the caller will revert the transaction. The selector to be\n     * returned can be obtained as `this.onERC721Received.selector`. This\n     * function MAY throw to revert and reject the transfer.\n     * Note: the ERC721 contract address is always the message sender.\n     * @param operator The address which called `safeTransferFrom` function\n     * @param from The address which previously owned the token\n     * @param tokenId The NFT identifier which is being transferred\n     * @param data Additional data with no specified format\n     * @return bytes4 `bytes4(keccak256(\"onERC721Received(address,address,uint256,bytes)\"))`\n     */\n    function onERC721Received(address operator, address from, uint256 tokenId, bytes memory data)\n    public returns (bytes4);\n}\n\n// File: @openzeppelin/contracts/math/SafeMath.sol\n\npragma solidity ^0.5.0;\n\n/**\n * @dev Wrappers over Solidity's arithmetic operations with added overflow\n * checks.\n *\n * Arithmetic operations in Solidity wrap on overflow. This can easily result\n * in bugs, because programmers usually assume that an overflow raises an\n * error, which is the standard behavior in high level programming languages.\n * `SafeMath` restores this intuition by reverting the transaction when an\n * operation overflows.\n *\n * Using this library instead of the unchecked operations eliminates an entire\n * class of bugs, so it's recommended to use it always.\n */\nlibrary SafeMath {\n    /**\n     * @dev Returns the addition of two unsigned integers, reverting on\n     * overflow.\n     *\n     * Counterpart to Solidity's `+` operator.\n     *\n     * Requirements:\n     * - Addition cannot overflow.\n     */\n    function add(uint256 a, uint256 b) internal pure returns (uint256) {\n        uint256 c = a + b;\n        require(c >= a, \"SafeMath: addition overflow\");\n\n        return c;\n    }\n\n    /**\n     * @dev Returns the subtraction of two unsigned integers, reverting on\n     * overflow (when the result is negative).\n     *\n     * Counterpart to Solidity's `-` operator.\n     *\n     * Requirements:\n     * - Subtraction cannot overflow.\n     */\n    function sub(uint256 a, uint256 b) internal pure returns (uint256) {\n        require(b <= a, \"SafeMath: subtraction overflow\");\n        uint256 c = a - b;\n\n        return c;\n    }\n\n    /**\n     * @dev Returns the multiplication of two unsigned integers, reverting on\n     * overflow.\n     *\n     * Counterpart to Solidity's `*` operator.\n     *\n     * Requirements:\n     * - Multiplication cannot overflow.\n     */\n    function mul(uint256 a, uint256 b) internal pure returns (uint256) {\n        // Gas optimization: this is cheaper than requiring 'a' not being zero, but the\n        // benefit is lost if 'b' is also tested.\n        // See: https://github.com/OpenZeppelin/openzeppelin-contracts/pull/522\n        if (a == 0) {\n            return 0;\n        }\n\n        uint256 c = a * b;\n        require(c / a == b, \"SafeMath: multiplication overflow\");\n\n        return c;\n    }\n\n    /**\n     * @dev Returns the integer division of two unsigned integers. Reverts on\n     * division by zero. The result is rounded towards zero.\n     *\n     * Counterpart to Solidity's `/` operator. Note: this function uses a\n     * `revert` opcode (which leaves remaining gas untouched) while Solidity\n     * uses an invalid opcode to revert (consuming all remaining gas).\n     *\n     * Requirements:\n     * - The divisor cannot be zero.\n     */\n    function div(uint256 a, uint256 b) internal pure returns (uint256) {\n        // Solidity only automatically asserts when dividing by 0\n        require(b > 0, \"SafeMath: division by zero\");\n        uint256 c = a / b;\n        // assert(a == b * c + a % b); // There is no case in which this doesn't hold\n\n        return c;\n    }\n\n    /**\n     * @dev Returns the remainder of dividing two unsigned integers. (unsigned integer modulo),\n     * Reverts when dividing by zero.\n     *\n     * Counterpart to Solidity's `%` operator. This function uses a `revert`\n     * opcode (which leaves remaining gas untouched) while Solidity uses an\n     * invalid opcode to revert (consuming all remaining gas).\n     *\n     * Requirements:\n     * - The divisor cannot be zero.\n     */\n    function mod(uint256 a, uint256 b) internal pure returns (uint256) {\n        require(b != 0, \"SafeMath: modulo by zero\");\n        return a % b;\n    }\n}\n\n// File: @openzeppelin/contracts/utils/Address.sol\n\npragma solidity ^0.5.0;\n\n/**\n * @dev Collection of functions related to the address type,\n */\nlibrary Address {\n    /**\n     * @dev Returns true if `account` is a contract.\n     *\n     * This test is non-exhaustive, and there may be false-negatives: during the\n     * execution of a contract's constructor, its address will be reported as\n     * not containing a contract.\n     *\n     * > It is unsafe to assume that an address for which this function returns\n     * false is an externally-owned account (EOA) and not a contract.\n     */\n    function isContract(address account) internal view returns (bool) {\n        // This method relies in extcodesize, which returns 0 for contracts in\n        // construction, since the code is only stored at the end of the\n        // constructor execution.\n\n        uint256 size;\n        // solhint-disable-next-line no-inline-assembly\n        assembly { size := extcodesize(account) }\n        return size > 0;\n    }\n}\n\n// File: @openzeppelin/contracts/drafts/Counters.sol\n\npragma solidity ^0.5.0;\n\n\n/**\n * @title Counters\n * @author Matt Condon (@shrugs)\n * @dev Provides counters that can only be incremented or decremented by one. This can be used e.g. to track the number\n * of elements in a mapping, issuing ERC721 ids, or counting request ids.\n *\n * Include with `using Counters for Counters.Counter;`\n * Since it is not possible to overflow a 256 bit integer with increments of one, `increment` can skip the SafeMath\n * overflow check, thereby saving gas. This does assume however correct usage, in that the underlying `_value` is never\n * directly accessed.\n */\nlibrary Counters {\n    using SafeMath for uint256;\n\n    struct Counter {\n        // This variable should never be directly accessed by users of the library: interactions must be restricted to\n        // the library's function. As of Solidity v0.5.2, this cannot be enforced, though there is a proposal to add\n        // this feature: see https://github.com/ethereum/solidity/issues/4637\n        uint256 _value; // default: 0\n    }\n\n    function current(Counter storage counter) internal view returns (uint256) {\n        return counter._value;\n    }\n\n    function increment(Counter storage counter) internal {\n        counter._value += 1;\n    }\n\n    function decrement(Counter storage counter) internal {\n        counter._value = counter._value.sub(1);\n    }\n}\n\n// File: @openzeppelin/contracts/introspection/ERC165.sol\n\npragma solidity ^0.5.0;\n\n\n/**\n * @dev Implementation of the `IERC165` interface.\n *\n * Contracts may inherit from this and call `_registerInterface` to declare\n * their support of an interface.\n */\ncontract ERC165 is IERC165 {\n    /*\n     * bytes4(keccak256('supportsInterface(bytes4)')) == 0x01ffc9a7\n     */\n    bytes4 private constant _INTERFACE_ID_ERC165 = 0x01ffc9a7;\n\n    /**\n     * @dev Mapping of interface ids to whether or not it's supported.\n     */\n    mapping(bytes4 => bool) private _supportedInterfaces;\n\n    constructor () internal {\n        // Derived contracts need only register support for their own interfaces,\n        // we register support for ERC165 itself here\n        _registerInterface(_INTERFACE_ID_ERC165);\n    }\n\n    /**\n     * @dev See `IERC165.supportsInterface`.\n     *\n     * Time complexity O(1), guaranteed to always use less than 30 000 gas.\n     */\n    function supportsInterface(bytes4 interfaceId) external view returns (bool) {\n        return _supportedInterfaces[interfaceId];\n    }\n\n    /**\n     * @dev Registers the contract as an implementer of the interface defined by\n     * `interfaceId`. Support of the actual ERC165 interface is automatic and\n     * registering its interface id is not required.\n     *\n     * See `IERC165.supportsInterface`.\n     *\n     * Requirements:\n     *\n     * - `interfaceId` cannot be the ERC165 invalid interface (`0xffffffff`).\n     */\n    function _registerInterface(bytes4 interfaceId) internal {\n        require(interfaceId != 0xffffffff, \"ERC165: invalid interface id\");\n        _supportedInterfaces[interfaceId] = true;\n    }\n}\n\n// File: @openzeppelin/contracts/token/ERC721/ERC721.sol\n\npragma solidity ^0.5.0;\n\n\n\n\n\n\n\n/**\n * @title ERC721 Non-Fungible Token Standard basic implementation\n * @dev see https://eips.ethereum.org/EIPS/eip-721\n */\ncontract ERC721 is ERC165, IERC721 {\n    using SafeMath for uint256;\n    using Address for address;\n    using Counters for Counters.Counter;\n\n    // Equals to `bytes4(keccak256(\"onERC721Received(address,address,uint256,bytes)\"))`\n    // which can be also obtained as `IERC721Receiver(0).onERC721Received.selector`\n    bytes4 private constant _ERC721_RECEIVED = 0x150b7a02;\n\n    // Mapping from token ID to owner\n    mapping (uint256 => address) private _tokenOwner;\n\n    // Mapping from token ID to approved address\n    mapping (uint256 => address) private _tokenApprovals;\n\n    // Mapping from owner to number of owned token\n    mapping (address => Counters.Counter) private _ownedTokensCount;\n\n    // Mapping from owner to operator approvals\n    mapping (address => mapping (address => bool)) private _operatorApprovals;\n\n    /*\n     *     bytes4(keccak256('balanceOf(address)')) == 0x70a08231\n     *     bytes4(keccak256('ownerOf(uint256)')) == 0x6352211e\n     *     bytes4(keccak256('approve(address,uint256)')) == 0x095ea7b3\n     *     bytes4(keccak256('getApproved(uint256)')) == 0x081812fc\n     *     bytes4(keccak256('setApprovalForAll(address,bool)')) == 0xa22cb465\n     *     bytes4(keccak256('isApprovedForAll(address,address)')) == 0xe985e9c\n     *     bytes4(keccak256('transferFrom(address,address,uint256)')) == 0x23b872dd\n     *     bytes4(keccak256('safeTransferFrom(address,address,uint256)')) == 0x42842e0e\n     *     bytes4(keccak256('safeTransferFrom(address,address,uint256,bytes)')) == 0xb88d4fde\n     *\n     *     => 0x70a08231 ^ 0x6352211e ^ 0x095ea7b3 ^ 0x081812fc ^\n     *        0xa22cb465 ^ 0xe985e9c ^ 0x23b872dd ^ 0x42842e0e ^ 0xb88d4fde == 0x80ac58cd\n     */\n    bytes4 private constant _INTERFACE_ID_ERC721 = 0x80ac58cd;\n\n    constructor () public {\n        // register the supported interfaces to conform to ERC721 via ERC165\n        _registerInterface(_INTERFACE_ID_ERC721);\n    }\n\n    /**\n     * @dev Gets the balance of the specified address.\n     * @param owner address to query the balance of\n     * @return uint256 representing the amount owned by the passed address\n     */\n    function balanceOf(address owner) public view returns (uint256) {\n        require(owner != address(0), \"ERC721: balance query for the zero address\");\n\n        return _ownedTokensCount[owner].current();\n    }\n\n    /**\n     * @dev Gets the owner of the specified token ID.\n     * @param tokenId uint256 ID of the token to query the owner of\n     * @return address currently marked as the owner of the given token ID\n     */\n    function ownerOf(uint256 tokenId) public view returns (address) {\n        address owner = _tokenOwner[tokenId];\n        require(owner != address(0), \"ERC721: owner query for nonexistent token\");\n\n        return owner;\n    }\n\n    /**\n     * @dev Approves another address to transfer the given token ID\n     * The zero address indicates there is no approved address.\n     * There can only be one approved address per token at a given time.\n     * Can only be called by the token owner or an approved operator.\n     * @param to address to be approved for the given token ID\n     * @param tokenId uint256 ID of the token to be approved\n     */\n    function approve(address to, uint256 tokenId) public {\n        address owner = ownerOf(tokenId);\n        require(to != owner, \"ERC721: approval to current owner\");\n\n        require(msg.sender == owner || isApprovedForAll(owner, msg.sender),\n            \"ERC721: approve caller is not owner nor approved for all\"\n        );\n\n        _tokenApprovals[tokenId] = to;\n        emit Approval(owner, to, tokenId);\n    }\n\n    /**\n     * @dev Gets the approved address for a token ID, or zero if no address set\n     * Reverts if the token ID does not exist.\n     * @param tokenId uint256 ID of the token to query the approval of\n     * @return address currently approved for the given token ID\n     */\n    function getApproved(uint256 tokenId) public view returns (address) {\n        require(_exists(tokenId), \"ERC721: approved query for nonexistent token\");\n\n        return _tokenApprovals[tokenId];\n    }\n\n    /**\n     * @dev Sets or unsets the approval of a given operator\n     * An operator is allowed to transfer all tokens of the sender on their behalf.\n     * @param to operator address to set the approval\n     * @param approved representing the status of the approval to be set\n     */\n    function setApprovalForAll(address to, bool approved) public {\n        require(to != msg.sender, \"ERC721: approve to caller\");\n\n        _operatorApprovals[msg.sender][to] = approved;\n        emit ApprovalForAll(msg.sender, to, approved);\n    }\n\n    /**\n     * @dev Tells whether an operator is approved by a given owner.\n     * @param owner owner address which you want to query the approval of\n     * @param operator operator address which you want to query the approval of\n     * @return bool whether the given operator is approved by the given owner\n     */\n    function isApprovedForAll(address owner, address operator) public view returns (bool) {\n        return _operatorApprovals[owner][operator];\n    }\n\n    /**\n     * @dev Transfers the ownership of a given token ID to another address.\n     * Usage of this method is discouraged, use `safeTransferFrom` whenever possible.\n     * Requires the msg.sender to be the owner, approved, or operator.\n     * @param from current owner of the token\n     * @param to address to receive the ownership of the given token ID\n     * @param tokenId uint256 ID of the token to be transferred\n     */\n    function transferFrom(address from, address to, uint256 tokenId) public {\n        //solhint-disable-next-line max-line-length\n        require(_isApprovedOrOwner(msg.sender, tokenId), \"ERC721: transfer caller is not owner nor approved\");\n\n        _transferFrom(from, to, tokenId);\n    }\n\n    /**\n     * @dev Safely transfers the ownership of a given token ID to another address\n     * If the target address is a contract, it must implement `onERC721Received`,\n     * which is called upon a safe transfer, and return the magic value\n     * `bytes4(keccak256(\"onERC721Received(address,address,uint256,bytes)\"))`; otherwise,\n     * the transfer is reverted.\n     * Requires the msg.sender to be the owner, approved, or operator\n     * @param from current owner of the token\n     * @param to address to receive the ownership of the given token ID\n     * @param tokenId uint256 ID of the token to be transferred\n     */\n    function safeTransferFrom(address from, address to, uint256 tokenId) public {\n        safeTransferFrom(from, to, tokenId, \"\");\n    }\n\n    /**\n     * @dev Safely transfers the ownership of a given token ID to another address\n     * If the target address is a contract, it must implement `onERC721Received`,\n     * which is called upon a safe transfer, and return the magic value\n     * `bytes4(keccak256(\"onERC721Received(address,address,uint256,bytes)\"))`; otherwise,\n     * the transfer is reverted.\n     * Requires the msg.sender to be the owner, approved, or operator\n     * @param from current owner of the token\n     * @param to address to receive the ownership of the given token ID\n     * @param tokenId uint256 ID of the token to be transferred\n     * @param _data bytes data to send along with a safe transfer check\n     */\n    function safeTransferFrom(address from, address to, uint256 tokenId, bytes memory _data) public {\n        transferFrom(from, to, tokenId);\n        require(_checkOnERC721Received(from, to, tokenId, _data), \"ERC721: transfer to non ERC721Receiver implementer\");\n    }\n\n    /**\n     * @dev Returns whether the specified token exists.\n     * @param tokenId uint256 ID of the token to query the existence of\n     * @return bool whether the token exists\n     */\n    function _exists(uint256 tokenId) internal view returns (bool) {\n        address owner = _tokenOwner[tokenId];\n        return owner != address(0);\n    }\n\n    /**\n     * @dev Returns whether the given spender can transfer a given token ID.\n     * @param spender address of the spender to query\n     * @param tokenId uint256 ID of the token to be transferred\n     * @return bool whether the msg.sender is approved for the given token ID,\n     * is an operator of the owner, or is the owner of the token\n     */\n    function _isApprovedOrOwner(address spender, uint256 tokenId) internal view returns (bool) {\n        require(_exists(tokenId), \"ERC721: operator query for nonexistent token\");\n        address owner = ownerOf(tokenId);\n        return (spender == owner || getApproved(tokenId) == spender || isApprovedForAll(owner, spender));\n    }\n\n    /**\n     * @dev Internal function to mint a new token.\n     * Reverts if the given token ID already exists.\n     * @param to The address that will own the minted token\n     * @param tokenId uint256 ID of the token to be minted\n     */\n    function _mint(address to, uint256 tokenId) internal {\n        require(to != address(0), \"ERC721: mint to the zero address\");\n        require(!_exists(tokenId), \"ERC721: token already minted\");\n\n        _tokenOwner[tokenId] = to;\n        _ownedTokensCount[to].increment();\n\n        emit Transfer(address(0), to, tokenId);\n    }\n\n    /**\n     * @dev Internal function to burn a specific token.\n     * Reverts if the token does not exist.\n     * Deprecated, use _burn(uint256) instead.\n     * @param owner owner of the token to burn\n     * @param tokenId uint256 ID of the token being burned\n     */\n    function _burn(address owner, uint256 tokenId) internal {\n        require(ownerOf(tokenId) == owner, \"ERC721: burn of token that is not own\");\n\n        _clearApproval(tokenId);\n\n        _ownedTokensCount[owner].decrement();\n        _tokenOwner[tokenId] = address(0);\n\n        emit Transfer(owner, address(0), tokenId);\n    }\n\n    /**\n     * @dev Internal function to burn a specific token.\n     * Reverts if the token does not exist.\n     * @param tokenId uint256 ID of the token being burned\n     */\n    function _burn(uint256 tokenId) internal {\n        _burn(ownerOf(tokenId), tokenId);\n    }\n\n    /**\n     * @dev Internal function to transfer ownership of a given token ID to another address.\n     * As opposed to transferFrom, this imposes no restrictions on msg.sender.\n     * @param from current owner of the token\n     * @param to address to receive the ownership of the given token ID\n     * @param tokenId uint256 ID of the token to be transferred\n     */\n    function _transferFrom(address from, address to, uint256 tokenId) internal {\n        require(ownerOf(tokenId) == from, \"ERC721: transfer of token that is not own\");\n        require(to != address(0), \"ERC721: transfer to the zero address\");\n\n        _clearApproval(tokenId);\n\n        _ownedTokensCount[from].decrement();\n        _ownedTokensCount[to].increment();\n\n        _tokenOwner[tokenId] = to;\n\n        emit Transfer(from, to, tokenId);\n    }\n\n    /**\n     * @dev Internal function to invoke `onERC721Received` on a target address.\n     * The call is not executed if the target address is not a contract.\n     *\n     * This function is deprecated.\n     * @param from address representing the previous owner of the given token ID\n     * @param to target address that will receive the tokens\n     * @param tokenId uint256 ID of the token to be transferred\n     * @param _data bytes optional data to send along with the call\n     * @return bool whether the call correctly returned the expected magic value\n     */\n    function _checkOnERC721Received(address from, address to, uint256 tokenId, bytes memory _data)\n        internal returns (bool)\n    {\n        if (!to.isContract()) {\n            return true;\n        }\n\n        bytes4 retval = IERC721Receiver(to).onERC721Received(msg.sender, from, tokenId, _data);\n        return (retval == _ERC721_RECEIVED);\n    }\n\n    /**\n     * @dev Private function to clear current approval of a given token ID.\n     * @param tokenId uint256 ID of the token to be transferred\n     */\n    function _clearApproval(uint256 tokenId) private {\n        if (_tokenApprovals[tokenId] != address(0)) {\n            _tokenApprovals[tokenId] = address(0);\n        }\n    }\n}\n\n// File: @openzeppelin/contracts/token/ERC721/IERC721Enumerable.sol\n\npragma solidity ^0.5.0;\n\n\n/**\n * @title ERC-721 Non-Fungible Token Standard, optional enumeration extension\n * @dev See https://eips.ethereum.org/EIPS/eip-721\n */\ncontract IERC721Enumerable is IERC721 {\n    function totalSupply() public view returns (uint256);\n    function tokenOfOwnerByIndex(address owner, uint256 index) public view returns (uint256 tokenId);\n\n    function tokenByIndex(uint256 index) public view returns (uint256);\n}\n\n// File: @openzeppelin/contracts/token/ERC721/ERC721Enumerable.sol\n\npragma solidity ^0.5.0;\n\n\n\n\n/**\n * @title ERC-721 Non-Fungible Token with optional enumeration extension logic\n * @dev See https://eips.ethereum.org/EIPS/eip-721\n */\ncontract ERC721Enumerable is ERC165, ERC721, IERC721Enumerable {\n    // Mapping from owner to list of owned token IDs\n    mapping(address => uint256[]) private _ownedTokens;\n\n    // Mapping from token ID to index of the owner tokens list\n    mapping(uint256 => uint256) private _ownedTokensIndex;\n\n    // Array with all token ids, used for enumeration\n    uint256[] private _allTokens;\n\n    // Mapping from token id to position in the allTokens array\n    mapping(uint256 => uint256) private _allTokensIndex;\n\n    /*\n     *     bytes4(keccak256('totalSupply()')) == 0x18160ddd\n     *     bytes4(keccak256('tokenOfOwnerByIndex(address,uint256)')) == 0x2f745c59\n     *     bytes4(keccak256('tokenByIndex(uint256)')) == 0x4f6ccce7\n     *\n     *     => 0x18160ddd ^ 0x2f745c59 ^ 0x4f6ccce7 == 0x780e9d63\n     */\n    bytes4 private constant _INTERFACE_ID_ERC721_ENUMERABLE = 0x780e9d63;\n\n    /**\n     * @dev Constructor function.\n     */\n    constructor () public {\n        // register the supported interface to conform to ERC721Enumerable via ERC165\n        _registerInterface(_INTERFACE_ID_ERC721_ENUMERABLE);\n    }\n\n    /**\n     * @dev Gets the token ID at a given index of the tokens list of the requested owner.\n     * @param owner address owning the tokens list to be accessed\n     * @param index uint256 representing the index to be accessed of the requested tokens list\n     * @return uint256 token ID at the given index of the tokens list owned by the requested address\n     */\n    function tokenOfOwnerByIndex(address owner, uint256 index) public view returns (uint256) {\n        require(index < balanceOf(owner), \"ERC721Enumerable: owner index out of bounds\");\n        return _ownedTokens[owner][index];\n    }\n\n    /**\n     * @dev Gets the total amount of tokens stored by the contract.\n     * @return uint256 representing the total amount of tokens\n     */\n    function totalSupply() public view returns (uint256) {\n        return _allTokens.length;\n    }\n\n    /**\n     * @dev Gets the token ID at a given index of all the tokens in this contract\n     * Reverts if the index is greater or equal to the total number of tokens.\n     * @param index uint256 representing the index to be accessed of the tokens list\n     * @return uint256 token ID at the given index of the tokens list\n     */\n    function tokenByIndex(uint256 index) public view returns (uint256) {\n        require(index < totalSupply(), \"ERC721Enumerable: global index out of bounds\");\n        return _allTokens[index];\n    }\n\n    /**\n     * @dev Internal function to transfer ownership of a given token ID to another address.\n     * As opposed to transferFrom, this imposes no restrictions on msg.sender.\n     * @param from current owner of the token\n     * @param to address to receive the ownership of the given token ID\n     * @param tokenId uint256 ID of the token to be transferred\n     */\n    function _transferFrom(address from, address to, uint256 tokenId) internal {\n        super._transferFrom(from, to, tokenId);\n\n        _removeTokenFromOwnerEnumeration(from, tokenId);\n\n        _addTokenToOwnerEnumeration(to, tokenId);\n    }\n\n    /**\n     * @dev Internal function to mint a new token.\n     * Reverts if the given token ID already exists.\n     * @param to address the beneficiary that will own the minted token\n     * @param tokenId uint256 ID of the token to be minted\n     */\n    function _mint(address to, uint256 tokenId) internal {\n        super._mint(to, tokenId);\n\n        _addTokenToOwnerEnumeration(to, tokenId);\n\n        _addTokenToAllTokensEnumeration(tokenId);\n    }\n\n    /**\n     * @dev Internal function to burn a specific token.\n     * Reverts if the token does not exist.\n     * Deprecated, use _burn(uint256) instead.\n     * @param owner owner of the token to burn\n     * @param tokenId uint256 ID of the token being burned\n     */\n    function _burn(address owner, uint256 tokenId) internal {\n        super._burn(owner, tokenId);\n\n        _removeTokenFromOwnerEnumeration(owner, tokenId);\n        // Since tokenId will be deleted, we can clear its slot in _ownedTokensIndex to trigger a gas refund\n        _ownedTokensIndex[tokenId] = 0;\n\n        _removeTokenFromAllTokensEnumeration(tokenId);\n    }\n\n    /**\n     * @dev Gets the list of token IDs of the requested owner.\n     * @param owner address owning the tokens\n     * @return uint256[] List of token IDs owned by the requested address\n     */\n    function _tokensOfOwner(address owner) internal view returns (uint256[] storage) {\n        return _ownedTokens[owner];\n    }\n\n    /**\n     * @dev Private function to add a token to this extension's ownership-tracking data structures.\n     * @param to address representing the new owner of the given token ID\n     * @param tokenId uint256 ID of the token to be added to the tokens list of the given address\n     */\n    function _addTokenToOwnerEnumeration(address to, uint256 tokenId) private {\n        _ownedTokensIndex[tokenId] = _ownedTokens[to].length;\n        _ownedTokens[to].push(tokenId);\n    }\n\n    /**\n     * @dev Private function to add a token to this extension's token tracking data structures.\n     * @param tokenId uint256 ID of the token to be added to the tokens list\n     */\n    function _addTokenToAllTokensEnumeration(uint256 tokenId) private {\n        _allTokensIndex[tokenId] = _allTokens.length;\n        _allTokens.push(tokenId);\n    }\n\n    /**\n     * @dev Private function to remove a token from this extension's ownership-tracking data structures. Note that\n     * while the token is not assigned a new owner, the _ownedTokensIndex mapping is _not_ updated: this allows for\n     * gas optimizations e.g. when performing a transfer operation (avoiding double writes).\n     * This has O(1) time complexity, but alters the order of the _ownedTokens array.\n     * @param from address representing the previous owner of the given token ID\n     * @param tokenId uint256 ID of the token to be removed from the tokens list of the given address\n     */\n    function _removeTokenFromOwnerEnumeration(address from, uint256 tokenId) private {\n        // To prevent a gap in from's tokens array, we store the last token in the index of the token to delete, and\n        // then delete the last slot (swap and pop).\n\n        uint256 lastTokenIndex = _ownedTokens[from].length.sub(1);\n        uint256 tokenIndex = _ownedTokensIndex[tokenId];\n\n        // When the token to delete is the last token, the swap operation is unnecessary\n        if (tokenIndex != lastTokenIndex) {\n            uint256 lastTokenId = _ownedTokens[from][lastTokenIndex];\n\n            _ownedTokens[from][tokenIndex] = lastTokenId; // Move the last token to the slot of the to-delete token\n            _ownedTokensIndex[lastTokenId] = tokenIndex; // Update the moved token's index\n        }\n\n        // This also deletes the contents at the last position of the array\n        _ownedTokens[from].length--;\n\n        // Note that _ownedTokensIndex[tokenId] hasn't been cleared: it still points to the old slot (now occupied by\n        // lastTokenId, or just over the end of the array if the token was the last one).\n    }\n\n    /**\n     * @dev Private function to remove a token from this extension's token tracking data structures.\n     * This has O(1) time complexity, but alters the order of the _allTokens array.\n     * @param tokenId uint256 ID of the token to be removed from the tokens list\n     */\n    function _removeTokenFromAllTokensEnumeration(uint256 tokenId) private {\n        // To prevent a gap in the tokens array, we store the last token in the index of the token to delete, and\n        // then delete the last slot (swap and pop).\n\n        uint256 lastTokenIndex = _allTokens.length.sub(1);\n        uint256 tokenIndex = _allTokensIndex[tokenId];\n\n        // When the token to delete is the last token, the swap operation is unnecessary. However, since this occurs so\n        // rarely (when the last minted token is burnt) that we still do the swap here to avoid the gas cost of adding\n        // an 'if' statement (like in _removeTokenFromOwnerEnumeration)\n        uint256 lastTokenId = _allTokens[lastTokenIndex];\n\n        _allTokens[tokenIndex] = lastTokenId; // Move the last token to the slot of the to-delete token\n        _allTokensIndex[lastTokenId] = tokenIndex; // Update the moved token's index\n\n        // This also deletes the contents at the last position of the array\n        _allTokens.length--;\n        _allTokensIndex[tokenId] = 0;\n    }\n}\n\n// File: @openzeppelin/contracts/token/ERC721/IERC721Metadata.sol\n\npragma solidity ^0.5.0;\n\n\n/**\n * @title ERC-721 Non-Fungible Token Standard, optional metadata extension\n * @dev See https://eips.ethereum.org/EIPS/eip-721\n */\ncontract IERC721Metadata is IERC721 {\n    function name() external view returns (string memory);\n    function symbol() external view returns (string memory);\n    function tokenURI(uint256 tokenId) external view returns (string memory);\n}\n\n// File: @openzeppelin/contracts/token/ERC721/ERC721Metadata.sol\n\npragma solidity ^0.5.0;\n\n\n\n\ncontract ERC721Metadata is ERC165, ERC721, IERC721Metadata {\n    // Token name\n    string private _name;\n\n    // Token symbol\n    string private _symbol;\n\n    // Optional mapping for token URIs\n    mapping(uint256 => string) private _tokenURIs;\n\n    /*\n     *     bytes4(keccak256('name()')) == 0x06fdde03\n     *     bytes4(keccak256('symbol()')) == 0x95d89b41\n     *     bytes4(keccak256('tokenURI(uint256)')) == 0xc87b56dd\n     *\n     *     => 0x06fdde03 ^ 0x95d89b41 ^ 0xc87b56dd == 0x5b5e139f\n     */\n    bytes4 private constant _INTERFACE_ID_ERC721_METADATA = 0x5b5e139f;\n\n    /**\n     * @dev Constructor function\n     */\n    constructor (string memory name, string memory symbol) public {\n        _name = name;\n        _symbol = symbol;\n\n        // register the supported interfaces to conform to ERC721 via ERC165\n        _registerInterface(_INTERFACE_ID_ERC721_METADATA);\n    }\n\n    /**\n     * @dev Gets the token name.\n     * @return string representing the token name\n     */\n    function name() external view returns (string memory) {\n        return _name;\n    }\n\n    /**\n     * @dev Gets the token symbol.\n     * @return string representing the token symbol\n     */\n    function symbol() external view returns (string memory) {\n        return _symbol;\n    }\n\n    /**\n     * @dev Returns an URI for a given token ID.\n     * Throws if the token ID does not exist. May return an empty string.\n     * @param tokenId uint256 ID of the token to query\n     */\n    function tokenURI(uint256 tokenId) external view returns (string memory) {\n        require(_exists(tokenId), \"ERC721Metadata: URI query for nonexistent token\");\n        return _tokenURIs[tokenId];\n    }\n\n    /**\n     * @dev Internal function to set the token URI for a given token.\n     * Reverts if the token ID does not exist.\n     * @param tokenId uint256 ID of the token to set its URI\n     * @param uri string URI to assign\n     */\n    function _setTokenURI(uint256 tokenId, string memory uri) internal {\n        require(_exists(tokenId), \"ERC721Metadata: URI set of nonexistent token\");\n        _tokenURIs[tokenId] = uri;\n    }\n\n    /**\n     * @dev Internal function to burn a specific token.\n     * Reverts if the token does not exist.\n     * Deprecated, use _burn(uint256) instead.\n     * @param owner owner of the token to burn\n     * @param tokenId uint256 ID of the token being burned by the msg.sender\n     */\n    function _burn(address owner, uint256 tokenId) internal {\n        super._burn(owner, tokenId);\n\n        // Clear metadata (if any)\n        if (bytes(_tokenURIs[tokenId]).length != 0) {\n            delete _tokenURIs[tokenId];\n        }\n    }\n}\n\n// File: @openzeppelin/contracts/token/ERC721/ERC721Full.sol\n\npragma solidity ^0.5.0;\n\n\n\n\n/**\n * @title Full ERC721 Token\n * This implementation includes all the required and some optional functionality of the ERC721 standard\n * Moreover, it includes approve all functionality using operator terminology\n * @dev see https://eips.ethereum.org/EIPS/eip-721\n */\ncontract ERC721Full is ERC721, ERC721Enumerable, ERC721Metadata {\n    constructor (string memory name, string memory symbol) public ERC721Metadata(name, symbol) {\n        // solhint-disable-previous-line no-empty-blocks\n    }\n}\n\n// File: contracts/libs/String.sol\n\npragma solidity ^0.5.11;\n\nlibrary String {\n\n    /**\n     * @dev Convert bytes32 to string.\n     * @param _x - to be converted to string.\n     * @return string\n     */\n    function bytes32ToString(bytes32 _x) internal pure returns (string memory) {\n        bytes memory bytesString = new bytes(32);\n        uint charCount = 0;\n        for (uint j = 0; j < 32; j++) {\n            byte char = byte(bytes32(uint(_x) * 2 ** (8 * j)));\n            if (char != 0) {\n                bytesString[charCount] = char;\n                charCount++;\n            }\n        }\n        bytes memory bytesStringTrimmed = new bytes(charCount);\n        for (uint j = 0; j < charCount; j++) {\n            bytesStringTrimmed[j] = bytesString[j];\n        }\n        return string(bytesStringTrimmed);\n    }\n\n    /**\n     * @dev Convert uint to string.\n     * @param _i - uint256 to be converted to string.\n     * @return uint in string\n     */\n    function uintToString(uint _i) internal pure returns (string memory _uintAsString) {\n        uint i = _i;\n\n        if (i == 0) {\n            return \"0\";\n        }\n        uint j = i;\n        uint len;\n        while (j != 0) {\n            len++;\n            j /= 10;\n        }\n        bytes memory bstr = new bytes(len);\n        uint k = len - 1;\n        while (i != 0) {\n            bstr[k--] = byte(uint8(48 + i % 10));\n            i /= 10;\n        }\n        return string(bstr);\n    }\n}\n\n// File: contracts/ERC721BaseCollection.sol\n\npragma solidity ^0.5.11;\n\n\n\n\ncontract ERC721BaseCollection is Ownable, ERC721Full {\n    using String for bytes32;\n    using String for uint256;\n\n    mapping(bytes32 => uint256) public maxIssuance;\n    mapping(bytes32 => uint) public issued;\n    mapping(uint256 => string) internal _tokenPaths;\n    mapping(address => bool) public allowed;\n\n    string[] public wearables;\n\n    string public baseURI;\n    bool public isComplete;\n\n    event BaseURI(string _oldBaseURI, string _newBaseURI);\n    event Allowed(address indexed _operator, bool _allowed);\n    event AddWearable(bytes32 indexed _wearableIdKey, string _wearableId, uint256 _maxIssuance);\n    event Issue(address indexed _beneficiary, uint256 indexed _tokenId, bytes32 indexed _wearableIdKey, string _wearableId, uint256 _issuedId);\n    event Complete();\n\n\n    /**\n     * @dev Create the contract.\n     * @param _name - name of the contract\n     * @param _symbol - symbol of the contract\n     * @param _operator - Address allowed to mint tokens\n     * @param _baseURI - base URI for token URIs\n     */\n    constructor(string memory _name, string memory _symbol, address _operator, string memory _baseURI) public ERC721Full(_name, _symbol) {\n        setAllowed(_operator, true);\n        setBaseURI(_baseURI);\n    }\n\n    modifier onlyAllowed() {\n        require(allowed[msg.sender], \"Only an `allowed` address can issue tokens\");\n        _;\n    }\n\n\n    /**\n     * @dev Set Base URI.\n     * @param _baseURI - base URI for token URIs\n     */\n    function setBaseURI(string memory _baseURI) public onlyOwner {\n        emit BaseURI(baseURI, _baseURI);\n        baseURI = _baseURI;\n    }\n\n    /**\n     * @dev Set allowed account to issue tokens.\n     * @param _operator - Address allowed to issue tokens\n     * @param _allowed - Whether is allowed or not\n     */\n    function setAllowed(address _operator, bool _allowed) public onlyOwner {\n        require(_operator != address(0), \"Invalid address\");\n        require(allowed[_operator] != _allowed, \"You should set a different value\");\n\n        allowed[_operator] = _allowed;\n        emit Allowed(_operator, _allowed);\n    }\n\n\n    /**\n     * @dev Returns an URI for a given token ID.\n     * Throws if the token ID does not exist. May return an empty string.\n     * @param _tokenId - uint256 ID of the token queried\n     * @return token URI\n     */\n    function tokenURI(uint256 _tokenId) external view returns (string memory) {\n        require(_exists(_tokenId), \"ERC721Metadata: received a URI query for a nonexistent token\");\n        return string(abi.encodePacked(baseURI, _tokenPaths[_tokenId]));\n    }\n\n\n    /**\n     * @dev Transfers the ownership of given tokens ID to another address.\n     * Usage of this method is discouraged, use {safeBatchTransferFrom} whenever possible.\n     * Requires the msg.sender to be the owner, approved, or operator.\n     * @param _from current owner of the token\n     * @param _to address to receive the ownership of the given token ID\n     * @param _tokenIds uint256 ID of the token to be transferred\n     */\n    function batchTransferFrom(address _from, address _to, uint256[] calldata _tokenIds) external {\n        for (uint256 i = 0; i < _tokenIds.length; i++) {\n            transferFrom(_from, _to, _tokenIds[i]);\n        }\n    }\n\n    /**\n     * @dev Returns the wearables length.\n     * @return wearable length\n     */\n    function wearablesCount() external view returns (uint256) {\n        return wearables.length;\n    }\n\n    /**\n     * @dev Complete the collection.\n     * @notice that it will only prevent for adding more wearables.\n     * The issuance is still allowed.\n     */\n    function completeCollection() external onlyOwner {\n        require(!isComplete, \"The collection is already completed\");\n        isComplete = true;\n        emit Complete();\n    }\n\n     /**\n     * @dev Add a new wearable to the collection.\n     * @notice that this method should only allow wearableIds less than or equal to 32 bytes\n     * @param _wearableIds - wearable ids\n     * @param _maxIssuances - total supply for the wearables\n     */\n    function addWearables(bytes32[] calldata _wearableIds, uint256[] calldata _maxIssuances) external onlyOwner {\n        require(_wearableIds.length == _maxIssuances.length, \"Parameters should have the same length\");\n\n        for (uint256 i = 0; i < _wearableIds.length; i++) {\n            addWearable(_wearableIds[i].bytes32ToString(), _maxIssuances[i]);\n        }\n    }\n\n    /**\n     * @dev Add a new wearable to the collection.\n     * @notice that this method allows wearableIds of any size. It should be used\n     * if a wearableId is greater than 32 bytes\n     * @param _wearableId - wearable id\n     * @param _maxIssuance - total supply for the wearable\n     */\n    function addWearable(string memory _wearableId, uint256 _maxIssuance) public onlyOwner {\n        require(!isComplete, \"The collection is complete\");\n        bytes32 key = getWearableKey(_wearableId);\n\n        require(maxIssuance[key] == 0, \"Can not modify an existing wearable\");\n        require(_maxIssuance > 0, \"Max issuance should be greater than 0\");\n\n        maxIssuance[key] = _maxIssuance;\n        wearables.push(_wearableId);\n\n        emit AddWearable(key, _wearableId, _maxIssuance);\n    }\n\n    /**\n     * @dev Safely transfers the ownership of given token IDs to another address\n     * If the target address is a contract, it must implement {IERC721Receiver-onERC721Received},\n     * which is called upon a safe transfer, and return the magic value\n     * `bytes4(keccak256(\"onERC721Received(address,address,uint256,bytes)\"))`; otherwise,\n     * the transfer is reverted.\n     * Requires the msg.sender to be the owner, approved, or operator\n     * @param _from - current owner of the token\n     * @param _to - address to receive the ownership of the given token ID\n     * @param _tokenIds - uint256 IDs of the tokens to be transferred\n     */\n    function safeBatchTransferFrom(address _from, address _to, uint256[] memory _tokenIds) public {\n        safeBatchTransferFrom(_from, _to, _tokenIds, \"\");\n    }\n\n    /**\n     * @dev Safely transfers the ownership of given token IDs to another address\n     * If the target address is a contract, it must implement {IERC721Receiver-onERC721Received},\n     * which is called upon a safe transfer, and return the magic value\n     * `bytes4(keccak256(\"onERC721Received(address,address,uint256,bytes)\"))`; otherwise,\n     * the transfer is reverted.\n     * Requires the msg.sender to be the owner, approved, or operator\n     * @param _from - current owner of the token\n     * @param _to - address to receive the ownership of the given token ID\n     * @param _tokenIds - uint256 ID of the tokens to be transferred\n     * @param _data bytes data to send along with a safe transfer check\n     */\n    function safeBatchTransferFrom(address _from, address _to, uint256[] memory _tokenIds, bytes memory _data) public {\n        for (uint256 i = 0; i < _tokenIds.length; i++) {\n            safeTransferFrom(_from, _to, _tokenIds[i], _data);\n        }\n    }\n\n    /**\n     * @dev Get keccak256 of a wearableId.\n     * @param _wearableId - token wearable\n     * @return bytes32 keccak256 of the wearableId\n     */\n    function getWearableKey(string memory _wearableId) public pure returns (bytes32) {\n        return keccak256(abi.encodePacked(_wearableId));\n    }\n\n    /**\n     * @dev Mint a new NFT of the specified kind.\n     * @notice that will throw if kind has reached its maximum or is invalid\n     * @param _beneficiary - owner of the token\n     * @param _tokenId - token\n     * @param _wearableIdKey - wearable key\n     * @param _wearableId - token wearable\n     * @param _issuedId - issued id\n     */\n    function _mint(\n        address _beneficiary,\n        uint256 _tokenId,\n        bytes32 _wearableIdKey,\n        string memory _wearableId,\n        uint256 _issuedId\n    ) internal {\n        // Check issuance\n        require(\n            _issuedId > 0 && _issuedId <= maxIssuance[_wearableIdKey],\n            \"Invalid issued id\"\n        );\n        require(issued[_wearableIdKey] < maxIssuance[_wearableIdKey], \"Option exhausted\");\n\n        // Mint erc721 token\n        super._mint(_beneficiary, _tokenId);\n\n        // Increase issuance\n        issued[_wearableIdKey] = issued[_wearableIdKey] + 1;\n\n        // Log\n        emit Issue(_beneficiary, _tokenId, _wearableIdKey, _wearableId, _issuedId);\n    }\n}\n\n// File: contracts/ERC721Collection.sol\n\npragma solidity ^0.5.11;\n\n\n\n\ncontract ERC721Collection is Ownable, ERC721Full, ERC721BaseCollection {\n    /**\n     * @dev Create the contract.\n     * @param _name - name of the contract\n     * @param _symbol - symbol of the contract\n     * @param _operator - Address allowed to mint tokens\n     * @param _baseURI - base URI for token URIs\n     */\n    constructor(\n        string memory _name,\n        string memory _symbol,\n        address _operator,\n        string memory _baseURI\n    ) public ERC721BaseCollection(_name, _symbol, _operator, _baseURI) {}\n\n    /**\n     * @dev Issue a new NFT of the specified kind.\n     * @notice that will throw if kind has reached its maximum or is invalid\n     * @param _beneficiary - owner of the token\n     * @param _wearableId - token wearable\n     */\n    function issueToken(address _beneficiary, string calldata _wearableId) external onlyAllowed {\n        _issueToken(_beneficiary, _wearableId);\n    }\n\n    /**\n     * @dev Issue NFTs.\n     * @notice that will throw if kind has reached its maximum or is invalid\n     * @param _beneficiaries - owner of the tokens\n     * @param _wearableIds - token wearables\n     */\n    function issueTokens(address[] calldata _beneficiaries, bytes32[] calldata _wearableIds) external onlyAllowed {\n        require(_beneficiaries.length == _wearableIds.length, \"Parameters should have the same length\");\n\n        for(uint256 i = 0; i < _wearableIds.length; i++) {\n            _issueToken(_beneficiaries[i], _wearableIds[i].bytes32ToString());\n        }\n    }\n\n    /**\n     * @dev Returns an URI for a given token ID.\n     * Throws if the token ID does not exist. May return an empty string.\n     * @param _tokenId - uint256 ID of the token queried\n     * @return token URI\n     */\n    function tokenURI(uint256 _tokenId) external view returns (string memory) {\n        require(_exists(_tokenId), \"ERC721Metadata: received a URI query for a nonexistent token\");\n        return string(abi.encodePacked(baseURI, _tokenPaths[_tokenId]));\n    }\n\n    /**\n     * @dev Issue a new NFT of the specified kind.\n     * @notice that will throw if kind has reached its maximum or is invalid\n     * @param _beneficiary - owner of the token\n     * @param _wearableId - token wearable\n     */\n    function _issueToken(address _beneficiary, string memory _wearableId) internal {\n        bytes32 key = getWearableKey(_wearableId);\n        uint256 issuedId = issued[key] + 1;\n        uint256 tokenId = this.totalSupply();\n\n        _mint(_beneficiary, tokenId, key, _wearableId, issuedId);\n        _setTokenURI(\n            tokenId,\n            string(abi.encodePacked(_wearableId, \"/\", issuedId.uintToString()))\n        );\n    }\n\n    /**\n     * @dev Internal function to set the token URI for a given token.\n     * Reverts if the token ID does not exist.\n     * @param _tokenId - uint256 ID of the token to set as its URI\n     * @param _uri - string URI to assign\n     */\n    function _setTokenURI(uint256 _tokenId, string memory _uri) internal {\n        _tokenPaths[_tokenId] = _uri;\n    }\n}",
  "sourcePath": "/Users/pabloestornut/dev/box1/contracts/Collection.sol",
  "compiler": {
    "name": "solc",
    "version": "0.5.17+commit.d19bba13.Emscripten.clang"
  },
  "schemaVersion": "3.3.4",
  "updatedAt": "2021-03-11T12:44:17.791Z",
  "devdoc": {
    "details": "see https://eips.ethereum.org/EIPS/eip-721",
    "methods": {
      "approve(address,uint256)": {
        "details": "Approves another address to transfer the given token ID The zero address indicates there is no approved address. There can only be one approved address per token at a given time. Can only be called by the token owner or an approved operator.",
        "params": {
          "to": "address to be approved for the given token ID",
          "tokenId": "uint256 ID of the token to be approved"
        }
      },
      "balanceOf(address)": {
        "details": "Gets the balance of the specified address.",
        "params": {
          "owner": "address to query the balance of"
        },
        "return": "uint256 representing the amount owned by the passed address"
      },
      "getApproved(uint256)": {
        "details": "Gets the approved address for a token ID, or zero if no address set Reverts if the token ID does not exist.",
        "params": {
          "tokenId": "uint256 ID of the token to query the approval of"
        },
        "return": "address currently approved for the given token ID"
      },
      "isApprovedForAll(address,address)": {
        "details": "Tells whether an operator is approved by a given owner.",
        "params": {
          "operator": "operator address which you want to query the approval of",
          "owner": "owner address which you want to query the approval of"
        },
        "return": "bool whether the given operator is approved by the given owner"
      },
      "ownerOf(uint256)": {
        "details": "Gets the owner of the specified token ID.",
        "params": {
          "tokenId": "uint256 ID of the token to query the owner of"
        },
        "return": "address currently marked as the owner of the given token ID"
      },
      "safeTransferFrom(address,address,uint256)": {
        "details": "Safely transfers the ownership of a given token ID to another address If the target address is a contract, it must implement `onERC721Received`, which is called upon a safe transfer, and return the magic value `bytes4(keccak256(\"onERC721Received(address,address,uint256,bytes)\"))`; otherwise, the transfer is reverted. Requires the msg.sender to be the owner, approved, or operator",
        "params": {
          "from": "current owner of the token",
          "to": "address to receive the ownership of the given token ID",
          "tokenId": "uint256 ID of the token to be transferred"
        }
      },
      "safeTransferFrom(address,address,uint256,bytes)": {
        "details": "Safely transfers the ownership of a given token ID to another address If the target address is a contract, it must implement `onERC721Received`, which is called upon a safe transfer, and return the magic value `bytes4(keccak256(\"onERC721Received(address,address,uint256,bytes)\"))`; otherwise, the transfer is reverted. Requires the msg.sender to be the owner, approved, or operator",
        "params": {
          "_data": "bytes data to send along with a safe transfer check",
          "from": "current owner of the token",
          "to": "address to receive the ownership of the given token ID",
          "tokenId": "uint256 ID of the token to be transferred"
        }
      },
      "setApprovalForAll(address,bool)": {
        "details": "Sets or unsets the approval of a given operator An operator is allowed to transfer all tokens of the sender on their behalf.",
        "params": {
          "approved": "representing the status of the approval to be set",
          "to": "operator address to set the approval"
        }
      },
      "supportsInterface(bytes4)": {
        "details": "See `IERC165.supportsInterface`.     * Time complexity O(1), guaranteed to always use less than 30 000 gas."
      },
      "transferFrom(address,address,uint256)": {
        "details": "Transfers the ownership of a given token ID to another address. Usage of this method is discouraged, use `safeTransferFrom` whenever possible. Requires the msg.sender to be the owner, approved, or operator.",
        "params": {
          "from": "current owner of the token",
          "to": "address to receive the ownership of the given token ID",
          "tokenId": "uint256 ID of the token to be transferred"
        }
      }
    },
    "title": "ERC721 Non-Fungible Token Standard basic implementation"
  },
  "userdoc": {
    "methods": {}
  }
}